:020000040800F2
:1000000040080020290200087B1C0008E71A0008AD
:10001000791C0008F1060008092100080000000012
:100020000000000000000000000000007F1C00082D
:10003000B1070008000000007D1C0008811C0008BA
:10004000430200084302000843020008430200087C
:10005000430200084302000843020008430200086C
:10006000430200084302000843020008430200085C
:10007000430200084302000843020008430200084C
:10008000430200084302000843020008430200083C
:10009000430200084302000843020008430200082C
:1000A000430200084302000843020008430200081C
:1000B000430200084302000843020008430200080C
:1000C00043020008430200084302000843020008FC
:1000D00043020008FD200008430200084302000814
:1000E00043020008430200084302000843020008DC
:1000F00043020008430200084302000843020008CC
:1001000043020008430200084302000843020008BB
:1001100043020008430200084302000843020008AB
:10012000F506000843020008010700084302000822
:10013000430200084302000843020008430200088B
:10014000430200084302000843020008430200087B
:10015000430200084302000843020008430200086B
:10016000430200084302000843020008430200085B
:100170004302000843020008430200080000000098
:10018000430200084302000800F002F800F03CF8C7
:100190000AA090E8000C82448344AAF10107DA45E2
:1001A00001D100F031F8AFF2090EBAE80F0013F0F8
:1001B000010F18BFFB1A43F001031847C8240000C1
:1001C000E8240000103A24BF78C878C1FAD8520752
:1001D00024BF30C830C144BF04680C6070470000C1
:1001E0000023002400250026103A28BF78C1FBD840
:1001F000520728BF30C148BF0B6070471FB502F0DF
:100200002BFA1FBD10B510BD00F0D4F81146FFF752
:10021000F5FF01F08AFF00F0F2F803B4FFF7F2FFF8
:1002200003BC00F0F7F80000094880470948004780
:10023000FEE7FEE7FEE7FEE7FEE7FEE7FEE7FEE796
:10024000FEE7FEE704480549054A064B70470000F3
:10025000191D000889010008400200204008002004
:10026000400400204004002053EA020C00F06980A2
:100270002DE9F04B4FF00006002B1FBFB3FA83F5BA
:1002800003FA05F424FA05F65E4012BF1643B2FAEB
:1002900082F502FA05F4C5F120051EBF22FA05FC1D
:1002A00044EA0C04203556EA044C4FEA144418BFC3
:1002B000641C4FF000084FF00009904271EB030CF2
:1002C00039D3002919BFB1FA81F701FA07F6B0FA5C
:1002D00080F700FA07F6C7F120071EBF20FA07FCD7
:1002E00046EA0C062037B6FBF4FCA7EB0507103FE7
:1002F00007F01F0BCBF120060CFA0BFB2CFA06F6CD
:1003000044BFB3460026202FA4BF5E464FF0000B2B
:100310005BEA060C08BF4FF0010B19EB0B09ABFBB6
:10032000027C48EB0608C01B06FB02CC0BFB03CC8F
:1003300071EB0C01C1E70B46024641464846BDE859
:10034000F08B13B54FF000004FF00001AFF30080C9
:10035000BDE81C4070474FF0000200B513469446BC
:100360009646203922BFA0E80C50A0E80C50B1F10D
:100370002001BFF4F7AF090728BFA0E80C5048BF21
:100380000CC05DF804EB890028BF40F8042B08BFBF
:10039000704748BF20F8022B11F0804F18BF00F8BB
:1003A000012B704770477047704700000048704746
:1003B000E00100207546FFF7F9FFAE4605006946EB
:1003C000534620F00700854618B020B5FFF73AFFE6
:1003D000BDE820404FF000064FF000074FF0000846
:1003E0004FF0000B21F00701AC46ACE8C009ACE8C7
:1003F000C009ACE8C009ACE8C0098D46704710B52B
:100400000446AFF300802046BDE81040FFF705BF6B
:100410007047000001491820ABBEFEE7260002002D
:100420002DE9F047184E04464FF480590022494602
:10043000304600F0B5FD44F4885500244FF40058D0
:100440004FF4804700223946304600F0A9FD2804C9
:1004500001D5012200E000224146304600F0A0FD17
:100460006D0001223946304600F09AFD00F00EF88A
:10047000641CE4B2102CE5D349463046BDE8F04791
:10048000012200F08DBD0000000402400020401C4D
:100490000004000CFBD070472DE9F0419FED281BB4
:1004A00090462DED028B0C4605469FED238B53ECB9
:1004B000112B51EC100B01F049FE53EC182B01F0FD
:1004C000CDFF01F09BFFC0F30D06C0F38D3748F45C
:1004D00040484FF4807000F037F84FF4045000F0BB
:1004E00033F815B1012D05D010E046F4804047F4F3
:1004F000804503E046F4004047F4004500F024F84E
:10050000284600F021F8404600F01EF854B1022CB5
:100510000BD0012C0CD16003BDEC028BBDE8F04187
:1005200000F012B842F20200F6E742F22800F3E7C8
:10053000BDEC028BBDE8F08100000040E17A64412F
:100540000000000080842E412DE9F04701221D4E5D
:10055000054697033946304600F022FD4FF4004827
:10056000012244464146304600F01AFD0022214651
:10057000304600F015FD00244FF40059280401D541
:10058000012200E000224946304600F009FDFFF755
:100590007DFF00223946304600F002FDFFF776FF6E
:1005A00001223946304600F0FBFC641C6D00E4B2C9
:1005B000102CE3D341463046BDE8F047012200F05D
:1005C000EFBC000000040240464910B54A6822F41E
:1005D00040324A604A6843681A434A6001684A6880
:1005E00022F480724A6001684A68036942EA032281
:1005F0004A6001684A6822F040724A6001684A68AD
:1006000083681A434A6001688A6822F400628A603B
:1006100001688A68C3681A438A60816A6FF07062F1
:10062000D14201688A6822F070628A6001688A6833
:100630000CD0836A1A438A6001688A6822F04052AB
:100640008A6001688A68C36A1A4301E022F0405256
:100650008A6001688A6822F002028A6001688A68FA
:10066000037E42EA43028A6090F820100029016864
:100670004A680FD042F400624A6001684A6822F476
:1006800060424A6001684A68174C436A04EB43338E
:100690001A4301E022F400624A600168CA6A22F447
:1006A0007002CA620168CA6A838B104C04EB035360
:1006B0001A43CA6201688A6822F400728A6001687B
:1006C0008A6890F8303042EA43228A6001688A687A
:1006D00022F480628A6001688A68406942EA802068
:1006E000886010BD0023014000E0FFFF0000F0FF24
:1006F000FEE70000014800F0E9B900005C000020BE
:10070000014800F0E3B900004C0100200168182303
:10071000CAB2103AB2FBF3F2054B6FF30901032A98
:100720009B5CC36500D9091D8165084670470000C0
:100730006226000810B5014600208B698A6A4FF0D6
:10074000C07453B1B3F5005F15D072B1012A0CD05B
:10075000022A0AD0032A09D104E01AB1012A06D0DC
:10076000022A03D1C96AC90100D5012010BDC96A96
:10077000A142FAD010BD002AF7D0012AF2D0022AF5
:10078000F3D0032AF3D010BD30B50468256825F4F2
:1007900080252560046863608368402B036803D06C
:1007A00099600068C26030BD9A600068C16030BD69
:1007B000704772B6FEE7000010B500220121104616
:1007C0009FED040BFFF768FEBDE810400020FFF727
:1007D00027BE0000000000000000000078B50024E3
:1007E000009490F83C20012A19D0012280F83C2086
:1007F0000A6807230568092A13D9EE680A3A02EB4A
:10080000420293409E43EE600B788A680A3B03EBFA
:1008100043039A400368DD682A43DA6010E002204F
:1008200078BD2E6902EB420293409E432E610B7805
:100830008A6803EB43039A4003681D692A431A61DF
:100840004A681F23072A13D205686E6B521E02EBFB
:10085000820293409E436E630B790A885B1E92B2BC
:1008600003EB83039A4003685D6B2A435A6327E0D6
:1008700005680D2A12D22E6BD21F02EB8202934022
:100880009E432E630B790A88DB1F92B203EB83032E
:100890009A4003681D6B2A431A6311E0EE6A0D3A11
:1008A00002EB820293409E43EE620B790A880D3B75
:1008B00092B203EB83039A400368DD6A2A43DA624B
:1008C000164B0568144A9D4206D10D68122D03D1BE
:1008D000556845F48005556005689D4218D10B6840
:1008E000102B01D0112B13D1536843F40003536034
:1008F000096810290CD10A490A4A0968B1FBF2F1CA
:1009000001EB8101490000E0491E00910029FBD163
:1009100080F83C40002078BD0023014000200140C9
:100920000C00002040420F0070B504004FF000059D
:1009300003D0206C002610B107E0012070BD2046D6
:1009400000F01CF8666484F83C60206CC00610D48B
:10095000206C20F4885040F0020020642046FFF70D
:1009600033FE6664206C20F0020040F00100206439
:1009700000E0012584F83C60284670BD70B586B063
:10098000064614216846FFF7E6FC1D493068884298
:1009900033D11C480025016841F480710160006872
:1009A00000F48070059017481438016841F0010187
:1009B00001600068694600F0010005900620009083
:1009C0000320CDE90105104800F0F2F9104C0F4862
:1009D000C4E900050015A560C4E90350400060614A
:1009E0008000C4E9060525622046656200F03EF9F4
:1009F00008B1FFF7DEFEB463A66306B070BD000069
:100A000000200140443802400000024010640240CF
:100A10005C0000202DE9F0410446876D00F0C6FA25
:100A2000064694F835000025022806D0802060652F
:100A300084F834500120BDE8F0812068016821F07D
:100A4000160101602068416921F080014161206C3C
:100A500008B9A06C20B12068016821F0080101608C
:100A60002068016821F0010101600CE000F09EFAAD
:100A7000801B052807D920206065032084F83500F5
:100A800084F83450D7E720680068C007EED194F8A6
:100A90005C103F208840B860012084F8350084F85D
:100AA00034500020C7E790F83510022903D0802188
:100AB000416501207047052180F835100068016804
:100AC00021F0010101600020704700002DE9F8438A
:100AD00004464FF00009CDF8009063484FF41651DA
:100AE000A56D0068B0FBF1F72E6894F85C10082043
:100AF00000FA01F131420FD021680A6852070BD584
:100B00000A6822F004020A6094F85C108840A86029
:100B1000606D40F00100606594F85C104FF00108D2
:100B200008FA01F0304208D021684969090604D565
:100B3000A860606D40F00200606594F85C100420CD
:100B40008840304208D021680968890704D5A86028
:100B5000606D40F00400606594F85C1010208840DF
:100B6000304218D021680968090714D5A8602068A8
:100B70000168490304D50068000308D5A16C07E0AB
:100B80000168C90503D4016821F008010160216CE6
:100B900009B12046884794F85C10202088403042F4
:100BA00031D021680968C9062DD5A86094F83500B0
:100BB00005282068016806D0490347D5006800036E
:100BC0001DD4616C1CE021F01601016020684169B0
:100BD00021F080014161206C08B9A06C20B120682F
:100BE000016821F00801016094F85C103F20884002
:100BF000A86084F8358084F83490216D1FE0E16BA3
:100C000009B120468847606D00282BD0606DC00771
:100C100014D0052084F835002068016821F0010116
:100C200001600098401C0090B84203D8206800681A
:100C3000C007F6D184F8358084F83490E16C00293F
:100C400010D001B02046BDE8F04308470168C9054F
:100C5000D5D4016821F01001016084F8358084F852
:100C60003490CCE7BDE8F8830C0000202DE9F0417A
:100C7000044600F09BF906465CB1022084F835007A
:100C8000002584F834502068016821F001010160DA
:100C90000DE00120BDE8F08100F088F9801B0528F7
:100CA00005D920206065032084F83500F2E720682C
:100CB0000068C007F0D12268116820480140D4E9DB
:100CC00001031843D4E903363343184363691843D7
:100CD000A3691843E3691843236A18430843616A08
:100CE000042903D1D4E90B13194308431060206889
:100CF0004069666A20F0070130460E430127042848
:100D00000CD1A06A0643E06A40B12046FFF712FD0D
:100D100020B14020606584F83570BAE720684661EC
:100D20002046FFF7F3FC94F85C203F21914081605E
:100D3000656584F835700020ACE700003F8010F056
:100D40002DE9F0410446866D90F834000025012815
:100D50000DD0012084F8340094F835700020012F64
:100D600007D084F8340002252846BDE8F08102202F
:100D7000FBE7022784F8357060652046FFF704FD25
:100D800094F85C103F208840B0602068016841F012
:100D900016010160206C20B12068016841F0080153
:100DA00001602068016841F001010160DCE700009A
:100DB0002DE9F84FDFF8BCA10022012503264FF0F2
:100DC0000F090AF1040BAAF1040E00BF0B6805FA23
:100DD00002F42340A34270D10F7907F00307012FDB
:100DE00001D0022F16D187684FEA420806FA08FCA4
:100DF00027EA0C07D1F80CC00CFA08FC4CEA070CE7
:100E0000C0F808C04768A7430C79C4F300149440A5
:100E10003C4344600C79E443A4070AD0C4684FEA19
:100E2000420C06FA0CF7BC438F6807FA0CF727430D
:100E3000C7600C7904F00304022C12D1D40800EB33
:100E4000840CDCF820405707FF0E09FA07F824EA63
:100E50000804D1F8108008FA07F848EA0408CCF82A
:100E6000208004684FEA420C06FA0CF7BC430F7965
:100E700007F0030707FA0CF7274307604C6814F4E0
:100E8000403F70D03C4C276847F480472760246877
:100E900022F0030704F480440094384C07EB040C60
:100EA000DCF8084897074FEA177809FA08F7BC43B7
:100EB000334FB84202D1002724E054E0314FB8420A
:100EC00001D101271EE0304FB84201D1022719E0BD
:100ED0002E4FB84201D1032714E02D4FB84201D163
:100EE00004270FE02B4FB84201D105270AE02A4F13
:100EF000B84201D1062705E0284FB84201D10727A3
:100F000000E0082707FA08F72743CCF80878DAF852
:100F100000405746D1F804C09C435FEACC2C00D572
:100F20001C433C60DBF800405F46D1F804C09C43A2
:100F30005FEA8C2C00D51C433C60DEF8004077460D
:100F4000D1F804C09C435FEA8C3C00D51C433C6054
:100F5000084F083F3C68D1F804C09C435FEACC3C92
:100F600000D51C433C60521C102AFFF42FAFBDE893
:100F7000F88F0000083C0140443802400030014036
:100F8000000002400004024000080240000C024041
:100F9000001002400014024000180240001C0240F1
:100FA0000AB1816170470904FBE7000001488068CD
:100FB0007047000000000020024881680278114458
:100FC00081607047000000200B4810B5016841F4B3
:100FD00000710160016841F480610160016841F4C1
:100FE00080710160032000F06FF80F2000F006F818
:100FF00000F024F8002010BD003C024070B50D4DFB
:1010000004464FF47A712878B1FBF0F00A49096878
:10101000B1FBF0F000F00CFB48B9102C07D2002215
:101020002146501E00F030F800206C6070BD012099
:1010300070BD0000000000200C0000200A4808B528
:10104000016841F480410160006800F48040009034
:101050000548001F016841F080510160006800F000
:101060008050009008BD000044380240002809DB91
:1010700000F01F02012191404009800000F1E020B2
:10108000C0F8001170470000F0B40E4B1B680C460E
:10109000C3F30223C3F10705042D00D90425191D4C
:1010A000072901D2002300E0DB1E012606FA05F124
:1010B000491E214099409E40761E16403143F0BCA7
:1010C00001F023B80CED00E0064900F007020868C3
:1010D0004FF6FF03184040EA0220034A104308601D
:1010E000704700000CED00E00000FA052DE9F04724
:1010F0000E46050065D0DFF81481D8F80000F7B27D
:1011000000F00700B04207D288F80070D8F800005D
:1011100000F00700B04254D128683D4C810712D539
:10112000400703D5206840F4E0502060287800078D
:1011300003D5206840F4604020602068A96820F052
:10114000F000084320602878C0072DD03049686837
:101150000839012812D0022813D0032811D00968B9
:10116000890700292DDA216821F00301014321605C
:10117000FFF71CFF814641F2883A0EE009688903B7
:10118000EFE709688901ECE7FFF710FFA0EB090121
:10119000514502D90320BDE8F0872068696800F056
:1011A0000C00B0EB810FEFD1D8F80010404601F0F1
:1011B0000701B14207D90770006800F00700B0428C
:1011C00001D00120E7E72878400705D52068E968C5
:1011D00020F4E050084320602878000706D52068F6
:1011E000296920F4604040EAC100206000F038F82E
:1011F0002168084AC1F30311515CC84006490860E0
:1012000006480068FFF7FAFE0020C4E7003C0240F1
:10121000083802406A2600080C0000200400002064
:101220000448054900680968044AC1F38221515CF9
:10123000C84070470C000020083802407A26000899
:101240000448054900680968044AC1F34231515C09
:10125000C84070470C000020083802407A26000879
:10126000154810B5006810F00C02144813D014494A
:10127000042A0FD0082A0ED10F4C241F226823689D
:1012800002F03F025B0207D52068C0F38810A0FB84
:10129000010106E0084610BD2168C1F38811A1FBD9
:1012A00000010023FEF7E0FF2168C1F30141491C62
:1012B0004900B0FBF1F010BD083802400024F400F2
:1012C00040787D012DE9F84F04006ED02078DFF8DA
:1012D0004C93C007A9F104054AD009F10400016844
:1012E000C1F38101012908D00068C0F38100022800
:1012F0000AD1D9F80000400206D52868800337D506
:1013000060680028E1D033E06068B0F5803F10D01D
:10131000B0F5A02F286810D020F48030286028680D
:1013200020F4802028606068A8B1FFF73FFE0646E1
:101330000DE0286840F48030F4E740F48020286015
:10134000F7E700BFFFF732FE801B642873D82868D8
:101350008003F7D50CE0FFF729FE064605E000BF45
:10136000FFF724FE801B6428F0D828688003F7D498
:101370002078DFF8AC8280074FF0000A3ED5A748FE
:10138000001D016811F00C0F08D00068C0F3810047
:1013900002280BD1D9F80000400207D42868800742
:1013A00016D5E068012800D112E033E1E068B8B159
:1013B0000120C8F80000FFF7F9FD064605E000BF70
:1013C000FFF7F4FD801B0228C0D828688007F7D5F6
:1013D0002868216920F0F80040EAC10028600DE08B
:1013E000C8F800A0FFF7E2FD064604E0FFF7DEFDC7
:1013F000801B02281FD828688007F7D420780007B0
:1014000022D5864F87486169703771B1012101602B
:10141000FFF7CCFD064604E0FFF7C8FD801B02285D
:1014200009D838688007F7D50EE0C0F800A0FFF7AC
:10143000BDFD064605E082E0FFF7B8FD801B0228EF
:101440007DD838688007F7D42078400768D5DFF862
:10145000CCB100270BF13C0BDBF80000C0000BD433
:10146000DBF8001041F08051CBF80010DBF80000F1
:10147000012700F0805000906B4E3068C00510D4FA
:10148000306840F480703060FFF790FD009005E018
:10149000FFF78CFD0099401A022850D83068C0052B
:1014A000F6D55E4EA0686C3601280FD0052830684E
:1014B00010D020F001003060306820F0040030606F
:1014C000A068B8B1FFF772FD00900FE0306840F0FF
:1014D0000100F4E740F004003060F7E7FFF766FD35
:1014E0000099411A41F28830814266D830688007FD
:1014F000F4D50EE0FFF75AFD009007E0FFF756FD28
:101500000099411A41F28830814256D830688007EC
:10151000F4D42FB1DBF8001021F08051CBF800108B
:10152000A069C8B33D49091D0968C1F381010229B9
:101530004AD00228504607D0C8F8600000E03CE0DE
:10154000FFF734FD04463BE04746C8F86000FFF76C
:101550002DFD064605E000BFFFF728FD801B022891
:101560002BD828688001F7D4D4E907010843A16A81
:101570002E4A490802EB0141626A41EA821108439E
:1015800094F82C1040EA0161C9F800100120386677
:10159000FFF70CFD044606E03EE000BFFFF706FD46
:1015A000001B022809D828688001F7D534E000BF65
:1015B000FFF7FCFC001B022802D90320BDE8F88FCE
:1015C00028688001F4D427E00128F7D0D9F800007A
:1015D000E26900F4800191421CD1226A00F03F01CF
:1015E000914217D147F6C071626A0140B1EB821F88
:1015F00010D1A26A4FF0FF3300F4403103EB5202E6
:10160000B1EB024F06D194F82C1000F07060B0EBF3
:10161000016F01D00120D1E70020CFE7043802405C
:1016200000004742800E4742007000400000FFFF6C
:1016300010B5401EB0F1807F01D3012010BD4FF0E6
:10164000E02460610F21601700F05FFD0020A061C1
:1016500007202061002010BD38B5044690F84200F4
:10166000202801D0022038BD51B14AB101202063A9
:1016700000206063204600F0F1FC216B012901D0BD
:10168000012038BD21680A684968009121680C3141
:1016900051E8002F42F0100241E80023002BF5D161
:1016A00038BD0000074B02689A4209D1064A1378F8
:1016B00013B901231370518032220449FFF7CCBFC4
:1016C000704700000010014010000020AC01002015
:1016D00070470000F8B5016804460868CA684B699D
:1016E00010F00F0F4FF0000559D003F0010602F47F
:1016F0009077374365D0C10705D0D10503D5616C1C
:1017000041F001016164410705D5D90703D0616C3F
:1017100041F002016164810705D5D90703D0616CEE
:1017200041F004016164010707D502F02001314353
:1017300003D0616C41F008016164616C00293AD00A
:10174000800604D5900602D5204600F0A0FB206854
:101750004069616CC0F38010090700D460B3204673
:1017600000F060FB20684069400621D520681430F5
:1017700050E8001F21F0400140E80012002AF5D196
:10178000E06BA8B172490165E06BFFF78CF90028A6
:1017900011D0E06B016D01B0BDE8F0400847830651
:1017A0000FD593060DD52046BDE8F84000F06FBB7D
:1017B0002046FFF78DFFF8BD2046FFF789FF6564DF
:1017C000F8BD266B2023012E7ED1C6067CD5D60619
:1017D0007AD508684868009048694FF002064006CC
:1017E0004DD5E26B106840684FF480770004000C20
:1017F0003AD0A18D814237D9E085D069B8422DD049
:1018000020680C3050E8001F21F4807140E800127D
:10181000002AF5D12068143050E8001F21F00101A2
:1018200040E80012002AF5D12068143050E8001F6B
:1018300021F0400140E80012002AF5D184F842303E
:10184000256320680C3050E8001F21F0100140E8AB
:101850000012002AF5D1E06BFFF7DCF86663A08D7B
:10186000E18D401A81B206E0A18D8142A8D1D069F4
:10187000B842A5D166632046FFF714FFF8BDA08DDE
:10188000E18D401A81B2E08D0028F7D00029F5D013
:1018900020680C3050E8002F22F4907240E80027B6
:1018A000002FF5D12068143050E8002F22F00102FB
:1018B00040E80027002FF5D184F8423025632068E6
:1018C0000C3050E8002F00E006E022F0100240E863
:1018D0000023002BF3D1CDE705062BD5150629D51E
:1018E00094F841002128C9D1A068B0F5805F01D1EA
:1018F0002069B0B1206A411C2162216800784860EB
:10190000E08C401E0004000CE084B7D12068C16860
:1019100021F08001C1602068C16841F04001C160D0
:10192000F8BD206A0088C0F308004860206A801C67
:101930002062E5E74006F3D55006F1D5CA68204697
:1019400022F04002CA6084F8413000F0CBF8F8BDC4
:10195000291D000870B5040004D094F8410000254A
:1019600010B106E0012070BD84F84050204600F020
:1019700023F8242084F841002068C16821F4005134
:10198000C160204600F0E4FA2068016921F490412A
:1019900001612068416921F02A0141612068C16824
:1019A00041F40051C1606564202084F8410084F84E
:1019B00042006563002070BDF0B587B00546142174
:1019C0006846FEF7C8FCDFF8FCC0296800243E48E2
:1019D0000226032707233D4A61453ED13A49143187
:1019E000D1F800C04CF0100CC1F800C0096801F03B
:1019F00010010591016841F0010101600068029445
:101A000000F0010005907802CDE90006CDE90373EE
:101A100069461046FFF7CCF92E4E2D4830604FF046
:101A20000060C6E901044014C6E903407461B46172
:101A3000F461346230467462FFF718F908B1FEF7BA
:101A4000B8FEEE63002211462520B563FFF71CFBAC
:101A50002520FFF70BFB07B0F0BD1F4DA942FAD1BF
:101A60001949254610310C6844F400340C600968AB
:101A700001F400310591016841F001010160016844
:101A800001F001010591016841F008010160006861
:101A9000029500F0080005900820CDE90006CDE988
:101AA00003731C4669461046FFF782F92020CDE9F2
:101AB00000060295CDE9037469460848FFF778F9F6
:101AC000C9E7000000100140303802400000024029
:101AD000406402404C01002000440040000C0240E1
:101AE000704770477047FEE77FB5002415480094A3
:101AF000019402941249039401604FF48031C0E9CB
:101B000001140461047680F820400F49C0E90A14EA
:101B10000125C561C46080F830404561FEF704FFCF
:101B200008B1FEF746FE0095CDE901546946054827
:101B3000FEF754FE002801D0FEF73BFE7FBD0000FB
:101B400000200140140000200100000F0D4808B5DE
:101B5000016841F4800101600068002200F4800007
:101B6000009011463820FFF78FFA3820FFF77EFAF1
:101B7000002211463A20FFF787FABDE808403A20D4
:101B8000FFF774BA3038024070B586B01421684649
:101B9000FEF7E1FB1A480025016841F08001016071
:101BA000016801F080010591016841F001010160C7
:101BB000016801F001010591016841F00201016035
:101BC000016801F002010591016841F0080101601E
:101BD00000680C4E00F008004FF47044059000229D
:101BE00021463046FFF7DCF90120CDE90040022014
:101BF000CDE9025069463046FFF7DAF806B070BD0D
:101C000030380240000402400C4810B50A49016017
:101C10004FF4E1314160002181600C22C160C0E9D4
:101C200004128161C161FFF795FE002803D0BDE871
:101C30001040FEF7BEBD10BD00100140BC000020EA
:101C40000C4810B50A4901604FF4E13141600021B0
:101C500081600C22C160C0E904128161C161FFF79B
:101C600079FE002803D0BDE81040FEF7A2BD10BDEC
:101C70000044004004010020FEE7FEE77047704783
:101C8000FFF79AB930B593B030216846FEF763FB91
:101C900014210CA8FEF75FFB1D480025016841F0E8
:101CA00080510160006800F080501190194801686F
:101CB00041F4804101600068022400F480401190EA
:101CC0000120039010200490009406940820CDE990
:101CD0000750A820CDE9090404200B906846FFF7BF
:101CE000F1FA08B172B6FEE70CA90F2081E83100C5
:101CF0004FF4A0500F904FF48050109005210CA885
:101D0000FFF7F4F9002801D072B6FEE713B030BD3A
:101D100040380240007000400248016841F4700100
:101D20000160704788ED00E010B5806B0021C1852F
:101D3000FFF7CEFC10BD70B5846B2068406994F845
:101D40004110C0F3C0100025212904D118B1E58449
:101D5000204600F08EF82068406994F84210C0F3E5
:101D60008010222904D118B1E585204600F05AF8E8
:101D7000606C40F0100060642046FFF7A9FC70BD65
:101D800010B50146806B096809684FF00002C9056B
:101D90002ED4C28501680C3151E8003F23F48073D2
:101DA00041E80034002CF5D10168143151E8003FBE
:101DB00023F0010341E80034002CF5D1016814310F
:101DC00051E8003F23F0400341E80034002CF5D1F6
:101DD000202180F84210016B012909D101680C31E2
:101DE00051E8003F23F0100341E80034002CF5D106
:101DF0004263016B012902D0FFF772FE10BD818D95
:101E0000FFF750FC10BD10B5806B01214163016BE1
:101E1000012902D0FFF765FE10BD818D4908FFF74B
:101E200041FC10BD01680C3151E8002F22F4907282
:101E300041E80023002BF5D10168143151E8002F4F
:101E400022F0010241E80023002BF5D1016B0129AA
:101E500009D101680C3151E8002F22F0100241E84D
:101E60000023002BF5D1202180F8421000210163CE
:101E7000704701680C3151E8002F22F0C00241E8A0
:101E80000023002BF5D1202180F84110704708B5C0
:101E900090F84210222901D0022008BD82684FF438
:101EA00080539A4201D1016921B1816A9A421BD0C3
:101EB0004AB10AE00268816A5268C2F308020A80E5
:101EC000816A891C08E0026972B10268526802F0F6
:101ED0007F020A70816A491C8162C18D491E090412
:101EE000090CC18503D01BE002685268F1E7016864
:101EF000CA6822F02002CA600168CA6822F48072AF
:101F0000CA6001684A6922F001024A61202180F812
:101F1000421000214163026B012A03D0FFF7E0FD6C
:101F2000002008BD016301680C3151E8002F22F048
:101F3000100241E80023002BF5D101680A68D2069F
:101F400002D50A6849680091818DFFF7ABFBE7E78E
:101F500070B5044600680169E26821F440511143FC
:101F600001612169A068E26908436169114308437E
:101F70002168CA6849F20C639A430243CA60206828
:101F80004169A26921F440711143416131492068DE
:101F9000884202D03049884202D1FFF751F901E06E
:101FA000FFF73EF9E2690023192164253226B2F5D4
:101FB000004F626828D0A0FB0101930F9200FEF74A
:101FC00053F90146B0FBF5F06FF01802504301EBF6
:101FD000800006EB0010B0FBF5F000F0F002B1FB62
:101FE000F5F002EB0012B1FBF5F06FF01803584367
:101FF00001EB800006EB0010B0FBF5F000F00F00E5
:1020000021681044886070BDA0FB010192185B41FB
:10201000FEF72AF90146B0FBF5F00201B1FBF5F03D
:102020006FF01803584301EB800006EBC000B0FBD3
:10203000F5F000F0F80002EB4002B1FBF5F0584378
:1020400001EB800006EBC000B0FBF5F000F00700EC
:10205000D6E70000001001400014014038B581624D
:1020600004468285002013466064222284F84220C0
:10207000E56B1F4AEA63E56B1E4A2A64E56B1E4A5C
:10208000EA64E26B10650A462168E06B091DFEF701
:1020900057FE30B110206064202084F842000120F7
:1020A00038BD2068016840680090206948B1206808
:1020B0000C3050E8001F41F4807140E80012002A03
:1020C000F5D12068143050E8001F41F0010140E8CC
:1020D0000012002AF5D12068143050E8001F41F0AA
:1020E000400140E80012002AF5D1002038BD000070
:1020F000811D0008071E0008371D00080148FFF772
:10210000E9BA0000BC000020FEE70907090E00281C
:1021100004DB00F1E02080F80014704700F00F00AD
:1021200000F1E02080F8141D7047FEF74DFFFFF727
:10213000A9FDFFF729FDFFF709FDFFF7D5FCFFF724
:1021400063FDFFF77DFDFEF737FBFEE72DE9C0419C
:1021500030B4DFF8A0C23CEA111418BF3CEA1314F3
:1021600000F0EC8081EA03051CEA111444EAD574FE
:1021700018BF1CEA131500F0C780A4EB05044FF04C
:10218000004545EAC12145EAC32341EA505143EAEB
:10219000525304F17F74994204F500344FEAC02091
:1021A0004FEAC22208BF904200F09C804FEA1365BC
:1021B0000FF24016765D4FEA134506FB05F7C7F1AF
:1021C000807706FB07F74FEAD737A7FB036876420D
:1021D000C8F58038A7FB06CE38BFA8F1010807FB79
:1021E00008E64FF0000EA6FB028CE6FB03CEDCF106
:1021F000000CCEF1004E38BFAEF1010EA6FB0C581C
:102200004FF000074FF00005E6FB0E87A1FB08C664
:10221000A0FB07CE16EB0E0645F10005E1FB0765B6
:1022200015F1E04E7EBFA4F580345FEA46066D41AD
:1022300016F1800745F100054FEA17274FEA0666B9
:1022400047EA0567A6F1DE46B6F1805F4FEA15253D
:102250001FD9384624F0010C05EBC471BCF1FE6FA8
:1022600001EB0C1102D8F0BCBDE8008124425CBF38
:1022700001F5801E9EEAC47F02D4F0BCBDE8008157
:10228000244238D4F0BCA1F1C041BDE8004100F0C7
:10229000DDB94FEAD22242EA43524FEAD323A7FBE9
:1022A00002864FEAD02040EA415007FB03661EEA4F
:1022B0000E0F4FEAD12105FB026658BFA6EB005670
:1022C000B6EB00564FEA520E4EEAC37E18EB0E0EE6
:1022D00056EB530EBDD518EB02085E417F1C55F13D
:1022E0000005B6E74FF480154FF000074FF00006E9
:1022F0004FF00008ADE7F0BC4FF0000001F1C04125
:1023000001F00041BDE8008111EA0C1F0CEA131531
:1023100000D00CE013EA0C1F00F025804FF0000005
:10232000F0BC81EA030101F00041BDE80081F0BC8E
:10233000BDE8004181EA030100F088B9F0BCBDE8C6
:10234000004170B500F034F9097EFC3E00F007B89A
:1023500081EA03014FF0000001F00041704781EA7B
:10236000030100F073B9F0BCBDE800414FF000007C
:1023700021497047FFFDFBF9F7F5F4F2F0EEEDEBC4
:10238000E9E8E6E4E3E1E0DEDDDBDAD8D7D5D4D373
:10239000D1D0CFCDCCCBCAC8C7C6C5C4C2C1C0BFBF
:1023A000BEBDBCBBBAB9B8B7B6B5B4B3B2B1B0AFC5
:1023B000AEADACABAAA9A8A8A7A6A5A4A3A3A2A1A9
:1023C000A09F9F9E9D9C9C9B9A9999989797969564
:1023D00095949393929191908F8F8E8E8D8C8C8B00
:1023E0008B8A898988888787868585848483838288
:1023F000828181800000FF070000F87F4FEA4103DF
:102400004FEA5353A3F58063D3F11E03C8BFD3F142
:10241000210C0CDD4FF0004242EAC12242EA505248
:1024200032FA03FC8CEAE17CACEBE1707047102BD4
:10243000C4BF0020704703F5787CBCF1FF3F04D097
:102440006FF0004282EA2100704770B500F0B0F8EA
:102450004992248000207047F2E70000DFF848C16D
:1024600070B51CEA111E1EBF1CEA13159EEA0C0F64
:1024700095EA0C0F00F06F8081EA030423EA4C1305
:102480004EEAD47E21EA4C1141F4801143F48013CA
:10249000AE44A1FB024CA0FB0365AEF17F7E361972
:1024A00055EB0C05A1FB034C4CF10003A0FB021CF7
:1024B00016EB0C06654153F10003094218BF46F0C4
:1024C000010613F4007F0BD14FEA03314FEA0530C8
:1024D000340341EA155140EA16506FF003020AE056
:1024E0004FEAC3214FEAC520F40241EA555140EAC0
:1024F00056506FF0020202EB2E4201EB025585EAC4
:10250000CE710AD05FEA440C18BF24F0004450F1A9
:10251000000041F1000120EAD47040F2FE7C6245E7
:1025200000D270BDA84214BF4FF080444FF0404429
:10253000002E08BF0024BEF1806FA8BFA1F1C041EA
:10254000BDE8704080F282804FF0000001F1C04190
:1025500001F0004170479EEA0C0F0CEA131518BFFA
:1025600095EA0C0F06D04FF0000081EA030E0EF042
:10257000004170BD00F01CF88900013E00F007B872
:1025800000F009B84FEA430C5FEA5C5C08D081EACE
:10259000030100F05BB84FEA410C5FEA5C5CF6D1E6
:1025A0004FF00000014970470000FF070000F87F6E
:1025B0000EF1020E2EF0030E5EF8046B364205D4C7
:1025C000012A43EB030515F5001F12D8012841EB42
:1025D000010C1CF5001F0CD80ED14FEAD17C15F56B
:1025E000001F0CEB4C0C0CF1020C08BF4CEBD37C25
:1025F00004E04FF0080C01E04FEAD37C0CEB4C05F3
:1026000026FA05F606F00706B6F1040C06D20EEB24
:10261000860CBDE870404CF0010C6047DFE80CF020
:10262000090B02024FF000414FF00000A1F500211C
:1026300070BD19461046012851EB010418BFD4F5AE
:10264000001484BF002001F0004170BD0808A0F50F
:1026500000114FEA310170474FF04070E1EE100A6F
:10266000704700061016000610160000000000005B
:10267000000001020304060708090000000001022F
:1026800003040000A426000800000020140000003D
:10269000C4010008B8260008140000202C0800001F
:1026A000E001000801000000100000000000000030
:0826B0000024F400000000000A
:040000050800018965
:00000001FF
