:020000040800F2
:10000000E0160020A1010008AF3C000805370008F9
:10001000AD3C000831100008554500080000000004
:10002000000000000000000000000000793D000812
:100030005911000800000000B13C00087B3D000899
:10004000BB010008BB010008BB010008BB010008A0
:10005000BB010008BB010008BB010008BB01000890
:10006000BB010008BB010008BB010008BB01000880
:10007000BB010008BB010008BB010008BB01000870
:10008000BB010008BB010008BB010008BB01000860
:10009000BB010008BB010008BB010008BB01000850
:1000A000BB010008BB010008BB010008BB01000840
:1000B000BB010008BB010008BB010008BB01000830
:1000C000BB010008BB010008BB010008BB01000820
:1000D000BB01000849450008BB010008BB0100083E
:1000E000BB010008BB010008BB010008BB01000800
:1000F000BB010008BB010008BB010008BB010008F0
:10010000BB010008BB010008BB010008BB010008DF
:10011000BB010008BB010008BB010008BB010008CF
:100120009D100008BB010008A9100008BB010008D1
:10013000BB010008BB010008BB010008BB010008AF
:10014000BB010008BB010008BB010008BB0100089F
:10015000BB010008BB010008BB010008BB0100088F
:10016000BB010008BB010008BB010008BB0100087F
:10017000BB010008BB010008BB0100080000000033
:10018000BB010008BB010008DFF810D000F086FBBF
:1001900000480047014F0008AFF30080E016002040
:1001A0000648804706480047FEE7FEE7FEE7FEE711
:1001B000FEE7FEE7FEE7FEE7FEE7FEE7153E000886
:1001C000890100082DE9F05F0546002092469B4614
:1001D00088460646814640241BE02846414647465D
:1001E000224600F090F953465A46C01A914110D366
:1001F00011461846224600F077F92D1A67EB0108E0
:100200004F4622460120002100F06EF917EB00094D
:100210004E41201EA4F10104DFDC484631462A4647
:100220004346BDE8F09FD2B201E000F8012B491E21
:10023000FBD270470022F6E710B513460A46044683
:100240001946FFF7F0FF204610BDCAB2401E10F855
:10025000011F8A4202D00029F9D1002070472DE900
:10026000FE4F81EA030404F0004421F000410094B1
:100270004FF0000B23F0004350EA01045ED052EA35
:1002800003045BD0C3F30A54C1F30A552C44A4F20F
:10029000F3340194A0FB0254C1F3130141F4801123
:1002A000C3F3130343F4801301FB024400FB034E2A
:1002B000840A970A44EA815447EA8357A4FB0768F3
:1002C00002958D0A05FB07854FEA932C04FB0C541D
:1002D0002705029D4FEA065847EA1637B5EB080591
:1002E0006EEB070C870E920E47EA811742EA8312E3
:1002F000A7FB0201B6EB0B0164EB00042B0D43EAF4
:100300000C335E1844EB1C50DA465146E7FB020101
:10031000C5F313044FEA0B3343EA14534FEA043294
:10032000019C43EA0603A4F10C040294009CCDE96D
:1003300000B400F08DF903B0BDE8F08F0020014655
:10034000F9E72DE9F04D81EA030404F0004B21F0B8
:10035000004514464FF0000A23F0004150EA050220
:1003600020D054EA01021DD0C5F30A570246C5F356
:100370001303C1F31300C1F30A5640F4801543F48C
:100380008013A7EB0608101BD64608F2FD3873EB66
:10039000050002D308F1010801E092185B41B8F1B1
:1003A000000F03DA00200146BDE8F08D00204FF475
:1003B0008011064684460EE0171B73EB050705D334
:1003C000121B63EB050306434CEA010C49084FEA94
:1003D000300092185B4150EA0107EDD152EA030068
:1003E00012D082EA040083EA0501084305D0101BFD
:1003F000AB4106D20122002306E000224FF0004369
:1004000002E06FF0010253101AEB06004CEB0851AA
:1004100010EB0A0041EB0B01BDE8F04D00F009B90B
:1004200070B5C1F30A5201F000450024C1F3130175
:1004300040F2FF3341F480119A4201DA002070BD8E
:1004400040F233439A42A2F2334203DC524200F0BC
:100450005AF800E090402C43F1D0404270BD00F0CB
:10046000004230F000400AD0C10D01F56071C0F3C8
:10047000160042EA0151C2084007114370470020AC
:100480000146704701F0004330B421F0004150EACA
:10049000010206D00A0DA2F56072C1F31301002A11
:1004A00002DC30BC00207047440F44EAC104C100A4
:1004B000E01830BC00EBC25000F084B830B50B46F9
:1004C000014600202022012409E021FA02F59D4284
:1004D00005D303FA02F5491B04FA02F52844151E58
:1004E000A2F10102F1DC30BD202A04DB203A00FA3F
:1004F00002F1002070479140C2F1200320FA03F37B
:10050000194390407047202A04DB203A21FA02F078
:100510000021704721FA02F3D040C2F1200291403D
:1005200008431946704700000FB4002300B589B096
:100530000CA900910B996FF00042CB601E4B069303
:100540001E4B07930423CDE901321D4A089202464F
:100550006B46002000F060FA09B05DF814FB70B53E
:1005600086B006464FF0FF300091CDE90101002032
:1005700015460C4604903246694604A8FFF7D4FF9E
:1005800002460498211825B108B1084600E020462B
:100590002860049800280DD0002A02DD00988842C7
:1005A00008D0081B0094CDE901043246694604A82E
:1005B000FFF7BAFF06B070BD510C00086F0C0008C1
:1005C000E50800080029A8BF7047401C490008BF83
:1005D00020F00100704710B4B0FA80FC00FA0CF073
:1005E00050EA010404BF10BC704749B1CCF12004AB
:1005F00021FA04F411FA0CF118BF01212143084338
:10060000A3EB0C01CB1D4FEA00614FEA102042BF63
:10061000002010BC704700EBC35010440029A4BF59
:1006200010BC7047401C490008BF20F0010010BCFE
:10063000704710B5141E73F1000408DA401C41F134
:10064000000192185B411A4301D120F0010010BD56
:100650002DE9F04D92469B4611B1B1FA81F202E0CC
:10066000B0FA80F220329046FFF73EFF04460F4674
:1006700040EA0A0041EA0B0153465A46084313D0A8
:10068000114653EA010019D0C8F140025046FFF765
:100690003AFF05460E46504659464246FFF724FFAC
:1006A000084305D0012004E020463946BDE8F08D1E
:1006B0000020054346EAE0762C4337430A98630559
:1006C000E40AA0EB08000022FD0A44EA47540A307D
:1006D00002D500200146E9E7010510196941DDE96D
:1006E000084500196941BDE8F04DA2E72DE9FE4F2C
:1006F000804681EA0300C00F0C46009021F00041C3
:1007000023F00045B8EB0200A94105D2404621463E
:1007100090461C460B46024623F00040104347D04B
:10072000270DC7F30A00C3F30A510290401A019043
:1007300040286BDAC3F3130040F4801B0098924604
:1007400020B10023D2EB030A63EB0B0B019859464F
:10075000C0F140025046FFF7C7FE06460D46504620
:100760005946019A00F0ACF810EB080061410024F2
:1007700087EA115284EAE7731A4340D0009A62B3C1
:10078000019A012A4FEA075215DC001B61EB0201B6
:100790004FF0004202EA0752CDE90042001C41F549
:1007A000801132462B46FFF753FF03B0BDE8F08FB0
:1007B00040462146F9E7001B61EB0201001C41F5B0
:1007C000801300185B412018A2F5001747EB0301C6
:1007D00040EAD570B6196D4111E06D084FEA360652
:1007E00045EAC0754FEA0752001B61EB0201001C8D
:1007F00041F5801149084FEA300000195141324655
:100800002B4603B0BDE8F04FFFF713BF009801225D
:1008100040000023D0EB020263EBE0730098214616
:100820004FEAE074B8EB000061EB0401E9E783F004
:1008300000435BE781F0004158E7C1F30A52C1F37E
:10084000130140F2FF3341F480119A4202DA002092
:100850000146704740F233439A42A2F2334202DC2F
:100860005242FFF750BEFFF73FBE000030B5041EF6
:1008700071F1000404DB4FF00044404264EB0101DD
:10088000141E73F1000405DB1C464FF00043524276
:1008900063EB0403994208BF904230BD064C074DFC
:1008A00006E0E06840F0010394E807009847103440
:1008B000AC42F6D3FFF76CFCE44F0008045000088C
:1008C000202A06DBCB17203A41FA02F043EAE07314
:1008D00006E041FA02F3D040C2F120029140084301
:1008E00019467047C0B24FF4F05100F0D1B9000082
:1008F0002DE9FF4F087883B09946FF2805D0491CA1
:100900002D2804D00024002008E000200BE0012462
:10091000F9E700EB800003EB4000491C0B78FF2B4C
:10092000F7D104B1404200230293147819461D46C2
:100930002D2C01D02B2C04D1521C2D2C13D0002493
:100940000294AA461478FF2C0FD00A25A3FB057841
:1009500001FB05814FF0000C03FB0C11521CE31945
:100960004AEB0101EEE70124EAE7814453EA010082
:1009700002D019F5C87F06DA03980021C0E90011FA
:1009800007B0BDE8F08F0025AE4E2F46DFF8B882E5
:10099000184600F091F9CDE90001B9F1000002DA42
:1009A000C9F1000400E004460023A74A1AEB030B38
:1009B00042EB045A12E0E00707D02A463346384695
:1009C0004146FFF74CFC074688462A463346104608
:1009D0001946FFF744FC05460E466410002CEAD188
:1009E000DDE90001B9F1000F5A46534606DAFFF778
:1009F000A8FC3A464346FFF7A4FC05E0FFF72FFCAE
:100A00003A464346FFF72BFC029A0AB181F00041B7
:100A1000039AC2E90001B3E72DE9FF4F1F468DB0ED
:100A2000D7E901464FF0FF382E2045464FF0000928
:100A30000B90B9696D1C0E988847396A82468847C1
:100A40000028F6D1BAF1FF3F0AD024F4D064002E7A
:100A500011DDBAF12B0F08D0BAF12D0F0BD102E046
:100A6000404611B08DE744F48064B9696D1C0E985E
:100A700088478246761E6946600501D52D2000E034
:100A80002B208DF8000001F1010B0DF1200809E089
:100A9000B9696D1C0E98884782460F9844F400741B
:100AA000761E0560002E02DDBAF1300FF0D00B99F2
:100AB0008A453ED144F0800406E00F99681CA9F1F4
:100AC000010944F400740860B9696D1C761E0E9823
:100AD000884782463028F0D02BE00B998A4505D113
:100AE000200603D444F08004761E18E0504603F03C
:100AF00071FE08B30DF11301761E44F400748B45AA
:100B000008D2AAF130000BF8010B200607D5A9F195
:100B1000010003E0200602D409F101008146A0058E
:100B200002D50F99681C0860B9696D1C0E9888473A
:100B30008246002ED1DC53E0002E51DDBAF1650F64
:100B400002D0BAF1450F4BD1A00549D5B9696D1C4A
:100B500024F44074761E0E9888478246002E0CDDE1
:100B60002B2804D0BAF12D0F07D144F48074B96951
:100B70006D1C0E9888478246761EE00501D52D2112
:100B800000E02B2108F8011BCDF82C8021E00DF1AD
:100B90002901761E44F4007488450CD2AAF1300075
:100BA00010F0FF0088F8000002D10B99884509D9A0
:100BB00008F1010806E0E00501D5244801E042F211
:100BC0000F708146B9696D1C0E98884782460F9850
:100BD0000560002E04DD504603F0FCFD0028D6D150
:100BE000F9690E988847FF208BF8000088F800000C
:100BF0000020069007904B466A4608A906A8FFF712
:100C000077FEA00502D46FF001002AE714F0240F4C
:100C10000AD0E00714D1DDE906123868031D3B60F5
:100C20000068C0E900120BE0DDE90601FFF72AFCCD
:100C30000146E00704D13868021D3A60006801608F
:100C400028460EE7000014400000F03FF1D8FFFFF7
:100C5000426842B1016811F8013B23B1521EC0E95C
:100C60000012184670470121C160881E7047426813
:100C70005AB1C368016843B983688B4205D0491EE5
:100C8000521CC0E90012002070474FF0FF3070473F
:100C90007F2801D9002208E0064A02EB5002C00773
:100CA000127800D1120902F00F0201209040084092
:100CB00070470000A44F00080EB540F23342029284
:100CC0000022CDE900221346FFF7C2FC03B000BDAD
:100CD0002DE9F047184E04464FF48059002249464A
:100CE000304601F07FFA44F4885500244FF4005850
:100CF0004FF4804700223946304601F073FA280449
:100D000001D5012200E000224146304601F06AFA96
:100D10006D0001223946304601F064FA00F00EF809
:100D2000641CE4B2102CE5D349463046BDE8F047D8
:100D3000012201F057BA0000000402400020401CCC
:100D40000004000CFBD070472DE9F0419FED281BFB
:100D500090462DED028B0C4605469FED238B53EC00
:100D6000112B51EC100BFFF7ECFA53EC182BFFF79B
:100D700076FAFFF755FBC0F30D06C0F38D3748F444
:100D800040484FF4807000F037F84FF4045000F002
:100D900033F815B1012D05D010E046F4804047F43A
:100DA000804503E046F4004047F4004500F024F895
:100DB000284600F021F8404600F01EF854B1022CFD
:100DC0000BD0012C0CD16003BDEC028BBDE8F041CF
:100DD00000F012B842F20200F6E742F22800F3E710
:100DE000BDEC028BBDE8F08100000040E17A644177
:100DF0000000000080842E412DE9F04701221D4EA5
:100E0000054697033946304601F0ECF94FF40048A7
:100E1000012244464146304601F0E4F900222146D1
:100E2000304601F0DFF900244FF40059280401D5C1
:100E3000012200E000224946304601F0D3F9FFF7D5
:100E40007DFF00223946304601F0CCF9FFF776FFEE
:100E500001223946304601F0C5F9641C6D00E4B248
:100E6000102CE3D341463046BDE8F047012201F0A3
:100E7000B9B900000004024010B50146806B026C55
:100E800012F0500F05D0026CD20626D500F071FD8D
:100E900010BD016C41F40071016401688A6812F0B0
:100EA000405F17D1027EAAB9CA6A12F4700F02D04D
:100EB0008A6852050ED44A6822F020024A60016C0A
:100EC00021F480710164016CC90403D4016C41F008
:100ED0000101016400F040FD10BD806BC26CBDE8F3
:100EE00010400846104710B5806B40210164416CEA
:100EF00041F00401416400F03CFD10BD10B5806B71
:100F000000F036FD10BD0000464910B54A6822F4D5
:100F100040324A604A6843681A434A6001684A6836
:100F200022F480724A6001684A68036942EA032237
:100F30004A6001684A6822F040724A6001684A6863
:100F400083681A434A6001688A6822F400628A60F2
:100F500001688A68C3681A438A60816A6FF07062A8
:100F6000D14201688A6822F070628A6001688A68EA
:100F70000CD0836A1A438A6001688A6822F0405262
:100F80008A6001688A68C36A1A4301E022F040520D
:100F90008A6001688A6822F002028A6001688A68B1
:100FA000037E42EA43028A6090F82010002901681B
:100FB0004A680FD042F400624A6001684A6822F42D
:100FC00060424A6001684A68174C436A04EB433345
:100FD0001A4301E022F400624A600168CA6A22F4FE
:100FE0007002CA620168CA6A838B104C04EB035317
:100FF0001A43CA6201688A6822F400728A60016832
:101000008A6890F8303042EA43228A6001688A6830
:1010100022F480628A6001688A68406942EA80201E
:10102000886010BD0023014000E0FFFF0000F0FFDA
:10103000FEE70000DFED140A9FED142AF1EE041A1A
:1010400060EE200AB7EE000A20EEA01A01EE420A76
:101050009FED0F1A60EE810A20EE001A9FED0D0A37
:1010600000EEA01AB5EEC01AF1EE10FA02DBF1EEB6
:10107000C10A01E0F0EE400A10EE900A06498842EB
:1010800001DB81EEA00A7047DB0FC94077CC2B3221
:1010900052499D39000000005F708930014800F01E
:1010A0001DBE00006C000020014800F017BE0000CB
:1010B000F801002001681823CAB2103AB2FBF3F21B
:1010C000054B6FF30901032A9B5CC36500D9091D19
:1010D0008165084670470000844F000810B501463E
:1010E00000208B698A6A4FF0C07453B1B3F5005F7A
:1010F00015D072B1012A0CD0022A0AD0032A09D1D4
:1011000004E01AB1012A06D0022A03D1C96AC90132
:1011100000D5012010BDC96AA142FAD010BD002A35
:10112000F7D0012AF2D0022AF3D0032AF3D010BD5F
:1011300030B50468256825F480252560046863605F
:101140008368402B036803D099600068C26030BD9B
:101150009A600068C16030BD704700000FB4802104
:1011600010B503AB0748029A03F010FA002805DD1A
:1011700082B264230349044802F00EF910BC5DF802
:1011800014FB00005A120020B001002072B6FEE7E6
:101190002DE9FC41DFED810A00219FED811A814A92
:1011A0000E460B464FF4FA7502EB830494ED000AE9
:1011B000B4EEE00AF1EE10FA02DDF0EE400A194654
:1011C000B4EEC10AF1EE10FA02D2B0EE401A1E4699
:1011D0005B1CAB42E8DB10EE903A734FBB4201DA86
:1011E000DFED720A9FED721A9FED720A724C30B1F8
:1011F000012835D002284FD0032878D0A8E060EE2F
:10120000811A0B460CE000BF02EB810696ED002A26
:10121000B4EEE12AF1EE10FA01D20B4602E0491CCD
:10122000A942F1DB01EE903AB8EEE12AF0EE401A65
:1012300042EE001AC4ED011A92ED000A10EE101AE7
:10124000B9420ADDDFED5D1A60EE211AF4EEE01A14
:10125000F1EE10FA01D280EE801A84ED021A77E0E6
:1012600060EE810A0B1E0CDB02EB8105D5ED001A46
:10127000F4EEE01AF1EE10FA01D20B4601E0491E3D
:10128000F2D500EE903AF8EEE01AF0EE400A41EEA8
:10129000800AC4ED010AE0E701EE901A60EE810ACF
:1012A0000027B8EEE12AF0EE401A40F2F3160B00E8
:1012B00042EE001AC4ED011A1BD400BF02EB830CEE
:1012C0009CED001AB4EEE01AF1EE10FA01D21F46BE
:1012D0000FE05B1EF2D50CE002EB810393ED001AE8
:1012E000B4EEE01AF1EE10FA02D20E4603E021E06D
:1012F000491CA942F0DB00EE907A314AB8EEE01AC0
:10130000F0EE400A41EE000A01EE106AB8EEC12A82
:10131000B0EE401A02EE001A31EE600A10EE101A1A
:10132000914204DDC1EE800AC4ED020A10E0B1EE84
:10133000040A0BE000EE906AB8EEE01AF0EE400A04
:1013400041EE000AB7EE000AC4ED010A84ED020A7C
:101350001C4AA168914203DDB2EE040A84ED020A40
:10136000A168B1F17C5F03DAB6EE000A84ED020AEF
:1013700060700746A068FFF772F805460E46606881
:10138000FFF76DF841EC100BCDE9005653EC102B34
:1013900039460DA0FFF7E2FEBDE8FC810000000029
:1013A00000401C46580200200AD7233C0AD7233CA1
:1013B000F4FD343F00004843100000209A99993F03
:1013C0000000C84200002041526573756C742053C0
:1013D000617665643A20547970653D25642C204619
:1013E000633D252E31662C20513D252E32660D0A97
:1013F000000000009FED381A30B50A230022F0EEFD
:10140000411AB0EE410A9FED352ACC1A1BE000BF0D
:1014100000EB8205D5ED000AF4EEC00AF1EE10FAF9
:1014200001DDB0EE600AF4EEC20AF1EE10FA01D26C
:10143000B0EE602A9A4201DA70EEA11A944201DC01
:1014400030EE811A521C8A42E2DB00EE903AB8EE8E
:10145000E02AC1EE820A01EE903AB8EEE12AC1EE2E
:10146000021AB6EE001A9FED1E2A20EE011A20EE97
:10147000020AF4EEC10AF1EE10FA06DDF4EEC01A2B
:10148000F1EE10FA01D2002030BDF4EEC00AF1EE08
:1014900010FA06D2F4EEC11AF1EE10FA01DD0120C5
:1014A00030BDF4EEC00AF1EE10FA06D2F4EEC01A26
:1014B000F1EE10FA01D2022030BDF4EEC10AF1EED5
:1014C00010FA06DDF4EEC11AF1EE10FA01DD032088
:1014D00030BD042030BD000000000000286B6E4EBF
:1014E0009A99993E2DE9F04121A0FFF737FE274D4B
:1014F000687804280FD0264F00220E21384600F0CD
:1015000071FE6878012658B101280DD0022809D053
:1015100003282BD109E0BDE8F0411EA0FFF71EBE55
:10152000082403E0022401E003260424D5ED010A87
:1015300095ED020A3146002002F0F2F85CB10A2073
:1015400000F03EFD01222146384600F04BFE022C01
:1015500008D0042C08D003223146BDE8F04115A084
:10156000FFF7FCBD0122F7E70222F5E7BDE8F081B5
:101570002D2D2D20537461727420496D697461742E
:10158000696E67202D2D2D0D0A000000100000202F
:10159000000C02404572726F723A204E6F206D6FE0
:1015A00064656C206C6561726E6564207965742178
:1015B0000D0A0000496D69746174696E673A204DC7
:1015C0006F64653D25642C2050696E3D5044256450
:1015D0000D0A00002DE9F04355202DED068B85B056
:1015E000FFF776FB00249FED319ADFED319ADFF8AB
:1015F000C4800A274FF4FA7900EE104AB0EE498A07
:10160000B8EEC00A00EE098A18EE100AFEF727FFAE
:1016100041EC100B002201211046FFF795FB14202E
:1016200000F0CEFC022002F045FB94FBF7F007FB34
:101630001040F0EE408AB8B918EE900AFEF70FFF9E
:1016400005460E469FED1CAB18EE100AFEF707FF8D
:1016500041EC100BCDE902568DED00AB53EC102B95
:10166000214617A0FFF77AFDB0EE690A08EB840067
:10167000C8EE800A641C4C45C0ED000ABCDB0022A9
:10168000012110469FED1A0BFFF75EFB0020FFF7CC
:101690001FFB49460748FFF7ADFE0446FFF778FDFC
:1016A00005B02046BDEC068BBDE8F0830000484342
:1016B000713D0A405802002000000020AE47014062
:1016C000506F696E742025643A20467265713D251D
:1016D0002E3066487A2C2056696E3D252E3366568C
:1016E0002C20566F75743D252E3366560D0A00006A
:1016F000000000000000000010B510EE100AFEF718
:10170000AEFE41EC100B002201211046FFF71CFB3E
:10171000BDE81040B420FFF7DBBA000010B52DED96
:10172000028BF0EE608AB0EE408AFFF783FC10EE89
:10173000100A1C4A1C499FED1D1A904207DBC8EE97
:10174000801AB0EE610A10EE100A884201DDB0EE98
:10175000410AB5EEC00AF1EE10FA01D29FED140A6B
:10176000C0EE010A9FED130A20EE800AF6EE000A91
:1017700030EE200ABCEEC00A10EE100AC4B218EE19
:10178000100AFEF76CFE41EC100B002201211046FE
:10179000FFF7DAFABDEC028B2046BDE81040FFF7F8
:1017A00097BA00005F7089303333D3403333D3406E
:1017B0000000000000007F4310B500220121104608
:1017C0009FED040BFFF7C0FABDE810400020FFF7C3
:1017D0007FBA0000000000000000000010B507A064
:1017E000FFF7BCFC0020FFF773FA0022BDE81040B1
:1017F000012110469FED030BFFF7A6BA636C6561EC
:10180000720D0A00000000000000000078B50024FE
:10181000009490F83C20012A19D0012280F83C2045
:101820000A6807230568092A13D9EE680A3A02EB09
:10183000420293409E43EE600B788A680A3B03EBBA
:1018400043039A400368DD682A43DA6010E002200F
:1018500078BD2E6902EB420293409E432E610B78C5
:101860008A6803EB43039A4003681D692A431A619F
:101870004A681F23072A13D205686E6B521E02EBBB
:10188000820293409E436E630B790A885B1E92B27C
:1018900003EB83039A4003685D6B2A435A6327E096
:1018A00005680D2A12D22E6BD21F02EB82029340E2
:1018B0009E432E630B790A88DB1F92B203EB8303EE
:1018C0009A4003681D6B2A431A6311E0EE6A0D3AD1
:1018D00002EB820293409E43EE620B790A880D3B35
:1018E00092B203EB83039A400368DD6A2A43DA620B
:1018F000164B0568144A9D4206D10D68122D03D17E
:10190000556845F48005556005689D4218D10B68FF
:10191000102B01D0112B13D1536843F400035360F3
:10192000096810290CD10A490A4A0968B1FBF2F189
:1019300001EB8101490000E0491E00910029FBD123
:1019400080F83C40002078BD002301400020014089
:101950000C00002040420F0000680349884202D179
:10196000024901200870704700200140100000204B
:101970007047704770B504004FF0000503D0206C2D
:10198000002610B107E0012070BD204600F01CF8D1
:10199000666484F83C60206CC00610D4206C20F48F
:1019A000885040F0020020642046FFF7ADFA6664DC
:1019B000206C20F0020040F00100206400E00125CE
:1019C00084F83C60284670BD70B586B00646142188
:1019D0006846FEF72FFC1D493068884233D11C4809
:1019E0000025016841F480710160006800F4807096
:1019F000059017481438016841F001010160006842
:101A0000694600F001000590062000900320CDE912
:101A10000105104800F0E6FA104C0F48C4E9000533
:101A20000015A560C4E90350400060618000C4E96E
:101A3000060525622046656200F020FA08B1FFF72E
:101A4000A5FBB463A66306B070BD00000020014092
:101A50004438024000000240106402406C00002044
:101A6000F8B50E4600210446009190F83C0013465C
:101A70000A46012807D0012084F83C0020688568C8
:101A8000ED0702D011E00220F8BD856845F00105A0
:101A900085604048404D0068B0FBF5F000EB400029
:101AA00000E0401E00900028FBD120688568ED050D
:101AB00003D5856825F48075856020688568ED0705
:101AC0005DD0226C40F20165AA4342F48072226428
:101AD0004068400505D5206C20F4005040F480504B
:101AE0002064206CC00404D5606C20F006006064A3
:101AF00000E0616484F83C10A16B2948274DC8635D
:101B0000A16B28480864A16B2748C86421686FF05E
:101B1000220008602068416841F0806141602068CF
:101B2000816841F480718160216832464C31A06B3C
:101B300000F00EFA024668681C49C006206806D00C
:101B4000884224D1816811F0405F13D01FE08842A1
:101B5000F8D0174B984203D1D1F80433DB06F1D00B
:101B6000144B984213D1D1F8041301F01F0110292E
:101B7000E8D30CE0816841F08041816007E0206C8F
:101B800040F010002064606C40F00100606410467A
:101B9000F8BD00000C00002040420F00002301406F
:101BA000790E0008FD0E0008E70E00080020014035
:101BB000002101400022014010B50446002094F8A5
:101BC0003C1001290CD0012184F83C1021688A685E
:101BD00022F001028A6021688A68D20702D01DE0E3
:101BE000022010BD8A6822F480728A60A16B91F88D
:101BF0003520022A07D1084600F014F818B1216CEC
:101C000041F04001216421684A6822F080624A6004
:101C1000216C21F4885141F001012164002184F8F4
:101C20003C1010BD2DE9F0410446876D00F0E0FA4C
:101C3000064694F835000025022806D0802060650D
:101C400084F834500120BDE8F0812068016821F05B
:101C5000160101602068416921F080014161206C1A
:101C600008B9A06C20B12068016821F0080101606A
:101C70002068016821F0010101600CE000F0B8FA71
:101C8000801B052807D920206065032084F83500D3
:101C900084F83450D7E720680068C007EED194F884
:101CA0005C103F208840B860012084F8350084F83B
:101CB00034500020C7E790F83510022903D0802166
:101CC000416501207047052180F8351000680168E2
:101CD00021F0010101600020704700002DE9F84368
:101CE00004464FF00009CDF8009063484FF41651B8
:101CF000A56D0068B0FBF1F72E6894F85C10082021
:101D000000FA01F131420FD021680A6852070BD561
:101D10000A6822F004020A6094F85C108840A86007
:101D2000606D40F00100606594F85C104FF00108B0
:101D300008FA01F0304208D021684969090604D543
:101D4000A860606D40F00200606594F85C100420AB
:101D50008840304208D021680968890704D5A86006
:101D6000606D40F00400606594F85C1010208840BD
:101D7000304218D021680968090714D5A860206886
:101D80000168490304D50068000308D5A16C07E089
:101D90000168C90503D4016821F008010160216CC4
:101DA00009B12046884794F85C10202088403042D2
:101DB00031D021680968C9062DD5A86094F835008E
:101DC00005282068016806D0490347D5006800034C
:101DD0001DD4616C1CE021F016010160206841698E
:101DE00021F080014161206C08B9A06C20B120680D
:101DF000016821F00801016094F85C103F208840E0
:101E0000A86084F8358084F83490216D1FE0E16B80
:101E100009B120468847606D00282BD0606DC0074F
:101E200014D0052084F835002068016821F00101F4
:101E300001600098401C0090B84203D820680068F8
:101E4000C007F6D184F8358084F83490E16C00291D
:101E500010D001B02046BDE8F04308470168C9052D
:101E6000D5D4016821F01001016084F8358084F830
:101E70003490CCE7BDE8F8830C0000202DE9F04158
:101E8000044600F0B5F906465CB1022084F835003E
:101E9000002584F834502068016821F001010160B8
:101EA0000DE00120BDE8F08100F0A2F9801B0528BB
:101EB00005D920206065032084F83500F2E720680A
:101EC0000068C007F0D12268116820480140D4E9B9
:101ED00001031843D4E903363343184363691843B5
:101EE000A3691843E3691843236A18430843616AE6
:101EF000042903D1D4E90B13194308431060206867
:101F00004069666A20F0070130460E430127042825
:101F10000CD1A06A0643E06A40B12046FFF7DEF824
:101F200020B14020606584F83570BAE720684661CA
:101F30002046FFF7BFF894F85C203F219140816074
:101F4000656584F835700020ACE700003F8010F034
:101F50002DE9F0410446866D90F8340000250128F3
:101F60000DD0012084F8340094F835700020012F42
:101F700007D084F8340002252846BDE8F08102200D
:101F8000FBE7022784F8357060652046FFF7D0F83C
:101F900094F85C103F208840B0602068016841F0F0
:101FA00016010160206C20B12068016841F0080131
:101FB00001602068016841F001010160DCE7000078
:101FC00070B5044600F014F90546601C02D00448C0
:101FD0000078044400F00CF9401BA042FAD370BD15
:101FE000000000202DE9F84FDFF8BCA100220125F8
:101FF00003264FF00F090AF1040BAAF1040E00BFEB
:102000000B6805FA02F42340A34270D10F7907F060
:102010000307012F01D0022F16D187684FEA42082B
:1020200006FA08FC27EA0C07D1F80CC00CFA08FCE9
:102030004CEA070CC0F808C04768A7430C79C4F302
:10204000001494403C4344600C79E443A4070AD054
:10205000C4684FEA420C06FA0CF7BC438F6807FAD3
:102060000CF72743C7600C7904F00304022C12D14B
:10207000D40800EB840CDCF820405707FF0E09FA67
:1020800007F824EA0804D1F8108008FA07F848EAAB
:102090000408CCF8208004684FEA420C06FA0CF7DA
:1020A000BC430F7907F0030707FA0CF727430760D3
:1020B0004C6814F4403F70D03C4C276847F480478C
:1020C0002760246822F0030704F480440094384C0D
:1020D00007EB040CDCF8084897074FEA177809FA71
:1020E00008F7BC43334FB84202D1002724E054E044
:1020F000314FB84201D101271EE0304FB84201D123
:10210000022719E02E4FB84201D1032714E02D4FCA
:10211000B84201D104270FE02B4FB84201D1052767
:102120000AE02A4FB84201D1062705E0284FB842FD
:1021300001D1072700E0082707FA08F72743CCF862
:102140000878DAF800405746D1F804C09C435FEAAB
:10215000CC2C00D51C433C60DBF800405F46D1F836
:1021600004C09C435FEA8C2C00D51C433C60DEF825
:1021700000407746D1F804C09C435FEA8C3C00D510
:102180001C433C60084F083F3C68D1F804C09C43A6
:102190005FEACC3C00D51C433C60521C102AFFF483
:1021A0002FAFBDE8F88F0000083C014044380240E2
:1021B00000300140000002400004024000080240DC
:1021C000000C0240001002400014024000180240BF
:1021D000001C0240426921EA02030A4043EA02412C
:1021E000816170470AB1816170470904FBE7000013
:1021F00001488068704700000000002070B50400AE
:1022000025D094F83D00002520B984F83C502046A4
:1022100000F0B8F8242084F83D002068016821F01F
:10222000010101602068016841F4004101602068FB
:10223000016821F40041016000F00CFA4D4A616828
:10224000914201D84C4900E04C49884201D201201A
:1022500070BD4B492368B0FBF1F15E6826F03F0684
:102260000E435E606368934206D94FF496735943F8
:102270004FF47A73B1FBF3F12368491C1E6A26F010
:102280003F06314319626168914210D84900401EEF
:10229000B0FBF1F2521CC2F30B02042A01D204205B
:1022A00022E0B0FBF1F0401CC0F30B001CE0A26880
:1022B000F2B301EBC10303EB0116431EB3FBF6F3CC
:1022C0005B1C43F480431B0549D092B301EBC10270
:1022D00002EB0111401EB0FBF1F0401CC0F30B00FB
:1022E00040F4804040F400402168CA694CF6FF7316
:1022F0009A431043C861D4E907100143206802687B
:1023000022F0C00211430160D4E9030101432068B7
:10231000826848F2FF339A4311438160D4E9050192
:1023200008432168CA6822F0FF021043C86001E038
:102330000EE016E02068016841F0010101602564AB
:10234000202084F83D00256384F83E50002070BDB5
:1023500001EB4106431EB3FBF6F35B1CB3E7012020
:10236000C2E701EB4101401EB0FBF1F0401CC0F39D
:102370000B00B7E7A086010080841E0000093D0025
:1023800040420F0010B586B0044614216846FDF7A0
:1023900051FF13492068884220D11248016841F05A
:1023A000020101600068694600F002000590C0204B
:1023B000009012200190012002900320039004203D
:1023C00004900948FFF70EFE06481030016841F4FA
:1023D00000110160006800F40010059006B010BD07
:1023E0000054004030380240000402400248816836
:1023F0000278114481607047000000200B4810B53E
:10240000016841F400710160016841F4806101607C
:10241000016841F480710160032000F06FF80F2023
:1024200000F006F800F024F8002010BD003C024047
:1024300070B50D4D04464FF47A712878B1FBF0F079
:102440000A490968B1FBF0F000F00CFB48B9102C08
:1024500007D200222146501E00F030F800206C60A8
:1024600070BD012070BD0000000000200C000020A5
:102470000A4808B5016841F480410160006800F431
:10248000804000900548001F016841F080510160C4
:10249000006800F08050009008BD00004438024001
:1024A000002809DB00F01F02012191404009800053
:1024B00000F1E020C0F8001170470000F0B40E4BAE
:1024C0001B680C46C3F30223C3F10705042D00D992
:1024D0000425191D072901D2002300E0DB1E012677
:1024E00006FA05F1491E214099409E40761E16408D
:1024F0003143F0BC02F064B80CED00E0064900F096
:10250000070208684FF6FF03184040EA0220034A1A
:1025100010430860704700000CED00E00000FA0571
:102520002DE9F0470E46050065D0DFF81481D8F894
:102530000000F7B200F00700B04207D288F8007040
:10254000D8F8000000F00700B04254D128683D4C94
:10255000810712D5400703D5206840F4E050206081
:102560002878000703D5206840F460402060206888
:10257000A96820F0F000084320602878C0072DD01B
:10258000304968680839012812D0022813D003287E
:1025900011D00968890700292DDA216821F003018B
:1025A00001432160FFF724FE814641F2883A0EE0A4
:1025B00009688903EFE709688901ECE7FFF718FE6E
:1025C000A0EB0901514502D90320BDE8F08720683E
:1025D000696800F00C00B0EB810FEFD1D8F8001063
:1025E000404601F00701B14207D90770006800F0CA
:1025F0000700B04201D00120E7E72878400705D561
:102600002068E96820F4E05008432060287800073B
:1026100006D52068296920F4604040EAC1002060A6
:1026200000F038F82168084AC1F30311515CC84032
:102630000649086006480068FFF7FAFE0020C4E774
:10264000003C0240083802408C4F00080C0000207B
:10265000040000200448054900680968044AC1F3E1
:102660008221515CC84070470C00002008380240AD
:102670009C4F00080448054900680968044AC1F3F2
:102680004231515CC84070470C00002008380240BD
:102690009C4F0008154810B5006810F00C02144853
:1026A00013D01449042A0FD0082A0ED10F4C241F2E
:1026B0002268236802F03F025B0207D52068C0F35E
:1026C0008810A0FB010106E0084610BD2168C1F397
:1026D0008811A1FB00010023FDF774FD2168C1F3FF
:1026E0000141491C4900B0FBF1F010BD083802401F
:1026F0000024F40040787D012DE9F84F04006ED0ED
:102700002078DFF84C93C007A9F104054AD009F1FD
:1027100004000168C1F38101012908D00068C0F3F9
:10272000810002280AD1D9F80000400206D52868A5
:10273000800337D560680028E1D033E06068B0F5E9
:10274000803F10D0B0F5A02F286810D020F4803042
:102750002860286820F4802028606068A8B1FFF70E
:1027600047FD06460DE0286840F48030F4E740F469
:1027700080202860F7E700BFFFF73AFD801B642840
:1027800073D828688003F7D50CE0FFF731FD0646C3
:1027900005E000BFFFF72CFD801B6428F0D82868F7
:1027A0008003F7D42078DFF8AC8280074FF0000A6E
:1027B0003ED5A748001D016811F00C0F08D0006835
:1027C000C0F3810002280BD1D9F80000400207D4E1
:1027D0002868800716D5E068012800D112E033E1AF
:1027E000E068B8B10120C8F80000FFF701FD064617
:1027F00005E000BFFFF7FCFC801B0228C0D828685A
:102800008007F7D52868216920F0F80040EAC10068
:1028100028600DE0C8F800A0FFF7EAFC064604E0D7
:10282000FFF7E6FC801B02281FD828688007F7D432
:102830002078000722D5864F87486169703771B1CB
:1028400001210160FFF7D4FC064604E0FFF7D0FC4D
:10285000801B022809D838688007F7D50EE0C0F839
:1028600000A0FFF7C5FC064605E082E0FFF7C0FCCC
:10287000801B02287DD838688007F7D4207840076D
:1028800068D5DFF8CCB100270BF13C0BDBF800007A
:10289000C0000BD4DBF8001041F08051CBF80010E1
:1028A000DBF80000012700F0805000906B4E30688C
:1028B000C00510D4306840F480703060FFF798FC99
:1028C000009005E0FFF794FC0099401A022850D8C8
:1028D0003068C005F6D55E4EA0686C3601280FD072
:1028E0000528306810D020F001003060306820F0FA
:1028F00004003060A068B8B1FFF77AFC00900FE0E8
:10290000306840F00100F4E740F004003060F7E781
:10291000FFF76EFC0099411A41F28830814266D877
:1029200030688007F4D50EE0FFF762FC009007E006
:10293000FFF75EFC0099411A41F28830814256D877
:1029400030688007F4D42FB1DBF8001021F08051FB
:10295000CBF80010A069C8B33D49091D0968C1F34F
:10296000810102294AD00228504607D0C8F86000E9
:1029700000E03CE0FFF73CFC04463BE04746C8F87B
:102980006000FFF735FC064605E000BFFFF730FCAE
:10299000801B02282BD828688001F7D4D4E90701CE
:1029A0000843A16A2E4A490802EB0141626A41EAE2
:1029B0008211084394F82C1040EA0161C9F8001014
:1029C00001203866FFF714FC044606E03EE000BF35
:1029D000FFF70EFC001B022809D828688001F7D5F4
:1029E00034E000BFFFF704FC001B022802D90320DB
:1029F000BDE8F88F28688001F4D427E00128F7D0DB
:102A0000D9F80000E26900F4800191421CD1226AE9
:102A100000F03F01914217D147F6C071626A014050
:102A2000B1EB821F10D1A26A4FF0FF3300F44031A6
:102A300003EB5202B1EB024F06D194F82C1000F0D8
:102A40007060B0EB016F01D00120D1E70020CFE72B
:102A50000438024000004742800E474200700040A8
:102A60000000FFFF10B5401EB0F1807F01D30120B0
:102A700010BD4FF0E02460610F21601701F0A0FD50
:102A80000020A06107202061002010BD10B590F843
:102A90003C20012A22D0012280F83C20CA688C68A0
:102AA00022F4407222434C6822F4806222430C6874
:102AB00022F4006222430C6922F4805222434C69C2
:102AC00022F400522243C969002322F480420A43BF
:102AD00001684A6480F83C30002010BD022010BD1F
:102AE00070B590F83C20012A32D0012480F83C4097
:102AF000022280F83D2003685A689D6822F0700623
:102B00000A6832435A60134B02689A4214D0B2F1F9
:102B1000804F11D0104B9A420ED0104B9A420BD0DE
:102B20000F4B9A4208D00F4B9A4205D00E4B9A4257
:102B300002D00E4B9A4204D1496825F08003194314
:102B4000916080F83D40002180F83C10084670BD3F
:102B5000022070BD00000140000400400008004059
:102B6000000C0040000401400040014000180040FB
:102B700010B5040003D094F83D0010B107E0012027
:102B800010BD002084F83C00204600F01FF8022011
:102B900084F83D00211D206801F044F9012084F8EB
:102BA000460084F83E0084F83F0084F8400084F832
:102BB000410084F8420084F8430084F8440084F81B
:102BC000450084F83D00002010BD000008B50068F5
:102BD0000649884208D10648016841F001010160B8
:102BE000006800F00100009008BD000000000140F6
:102BF0004438024070B5044690F83C000025012896
:102C000017D0012684F83C60022084F83D0020683B
:102C1000826822F0770222F47F428260086850289E
:102C200038D00DDC20284FD005DC90B3102811D10E
:102C30004AE0022070BD302846D040280AD13BE04F
:102C400060282FD070280DD0B0F5805F03D0B0F58C
:102C5000005F12D0012584F83D60002084F83C001C
:102C6000284670BDCB68D1E90121206801F04FF9F9
:102C70002068816841F0770109E0CB68D1E9012142
:102C8000206801F044F92068816841F48041816046
:102C9000E1E719E0CA684968206801F00DFA50219F
:102CA000206806E0CA684968206801F016FA6021C9
:102CB000206801F036F9CEE7CA684968206801F05B
:102CC000FBF940212068F4E7226801461046F0E74E
:102CD00090F83C20012A0CD0012200F83C2F02235E
:102CE000437050F83C3C5961427000210170084625
:102CF000704702207047000010B586B004461421CA
:102D00006846FDF797FA0F492068884217D10E48A8
:102D10000021026842F010020260006800F010001A
:102D200005904FF4007000900220CDE901010320CE
:102D300003900120049069460448FFF753F906B058
:102D400010BD000000000140303802400010024079
:102D500070B5044690F83C0000260D4601280FD0BF
:102D6000012084F83C006AB1042A1DD0082A2FD023
:102D70000C2A3FD00126002084F83C00304670BD6C
:102D8000022070BD206801F0D5F82068816941F00B
:102D9000080181612068816921F004018161206856
:102DA00081692A69114311E0206801F0F3F8206875
:102DB000816941F4006181612068816921F4806149
:102DC0008161206881692A6941EA02218161D2E733
:102DD000206801F015F92068C16941F00801C1615E
:102DE0002068C16921F00401C1612068C1692A69B4
:102DF000114311E0206801F037F92068C16941F4FE
:102E00000061C1612068C16921F48061C1612068ED
:102E1000C1692A6941EA0221C161ACE710B5040029
:102E200003D094F83D0010B107E0012010BD002050
:102E300084F83C00204600F01EF8022084F83D0093
:102E4000211D206800F0EEFF012084F8460084F880
:102E50003E0084F83F0084F8400084F8410084F884
:102E6000420084F8430084F8440084F8450084F864
:102E70003D00002010BD704710B50446022249B144
:102E800004290ED0082913D094F84100012816D047
:102E9000012010BD94F83E000128F9D184F83E20AD
:102EA0000FE094F83F000128F2D184F83F2008E0B9
:102EB00094F840000128EBD184F8402001E084F828
:102EC00041200122206801F015F816492068164AB1
:102ED000884201D0904203D1436C43F400434364E1
:102EE0002068884213D0B0F1804F10D00F4988423B
:102EF0000DD00F4988420AD00E49884207D090422F
:102F000005D00D49884202D00C49884204D181681D
:102F100001F00701062903D0016841F001010160B9
:102F2000002010BD000001400004014000040040EA
:102F300000080040000C0040004001400018004024
:102F400038B5044690F84200202801D0022038BD50
:102F500051B14AB10120206300206063204601F096
:102F600069FA216B012901D0012038BD21680A6866
:102F70004968009121680C3151E8002F42F010029D
:102F800041E80023002BF5D138BD0000074B026853
:102F90009A4209D1064A137813B90123137051805C
:102FA00032220449FFF7CCBF7047000000100140F7
:102FB0001C0000202812002070470000F8B50168AE
:102FC00004460868CA684B6910F00F0F4FF00005FF
:102FD00059D003F0010602F49077374365D0C1075A
:102FE00005D0D10503D5616C41F001016164410751
:102FF00005D5D90703D0616C41F0020161648107F6
:1030000005D5D90703D0616C41F004016164010763
:1030100007D502F02001314303D0616C41F0080173
:103020006164616C00293AD0800604D5900602D50F
:10303000204601F017F920684069616CC0F38010E8
:10304000090700D460B3204601F0D7F82068406932
:10305000400621D52068143050E8001F21F04001BF
:1030600040E80012002AF5D1E06BA8B17249016571
:10307000E06BFEF720FE002811D0E06B016D01B07F
:10308000BDE8F040084783060FD593060DD52046CE
:10309000BDE8F84001F0E6B82046FFF78DFFF8BD27
:1030A0002046FFF789FF6564F8BD266B2023012EBB
:1030B0007ED1C6067CD5D6067AD5086848680090C9
:1030C00048694FF0020640064DD5E26B1068406833
:1030D0004FF480770004000C3AD0A18D814237D99B
:1030E000E085D069B8422DD020680C3050E8001F30
:1030F00021F4807140E80012002AF5D120681430D4
:1031000050E8001F21F0010140E80012002AF5D12B
:103110002068143050E8001F21F0400140E8001200
:10312000002AF5D184F84230256320680C3050E83D
:10313000001F21F0100140E80012002AF5D1E06BD9
:10314000FEF770FD6663A08DE18D401A81B206E046
:10315000A18D8142A8D1D069B842A5D1666320462D
:10316000FFF714FFF8BDA08DE18D401A81B2E08D0C
:103170000028F7D00029F5D020680C3050E8002F47
:1031800022F4907240E80027002FF5D12068143017
:1031900050E8002F22F0010240E80027002FF5D16F
:1031A00084F84230256320680C3050E8002F00E09E
:1031B00006E022F0100240E80023002BF3D1CDE717
:1031C00005062BD5150629D594F841002128C9D12B
:1031D000A068B0F5805F01D12069B0B1206A411CC0
:1031E0002162216800784860E08C401E0004000CD9
:1031F000E084B7D12068C16821F08001C1602068F7
:10320000C16841F04001C160F8BD206A0088C0F388
:1032100008004860206A801C2062E5E74006F3D57C
:103220005006F1D5CA68204622F04002CA6084F8F0
:10323000413000F001F9F8BDFF40000870B504000E
:1032400004D094F84100002510B106E0012070BDC3
:1032500084F84050204600F023F8242084F84100F0
:103260002068C16821F40051C160204601F05CF87B
:103270002068016921F4904101612068416921F0D1
:103280002A0141612068C16841F40051C160656450
:10329000202084F8410084F842006563002070BD5E
:1032A000F0B587B0064614216846FCF7C3FF324FDD
:1032B000306800253149022203230724B8423BD15C
:1032C0002E481430076847F010070760006800F0C8
:1032D00010000590086840F0010008600868694621
:1032E00000F00100059058028DE82500CDE9033477
:1032F0002348FEF777FE244C224820604FF0006000
:10330000C4E901054014C4E903506561A561E561A4
:10331000256220466562FEF7B1FD08B1FDF736FF74
:10332000F463002211462520A663FFF7C7F8252085
:10333000FFF7B6F807B0F0BD144EB042FAD10F480F
:103340001030066846F480260660006800F480208D
:103350000590086840F0020008600868694600F0BF
:10336000020005904FF440608DE82500CDE903345C
:103370000748FEF737FEDDE7001001403038024015
:103380000000024040640240F80100200048004074
:1033900000040240704770472DE9F843044690F856
:1033A0004100984616460D46202802D00220BDE86E
:1033B000F88385B17EB100206064212084F841004B
:1033C000FEF716FFA6848146E684A0682027B0F5A4
:1033D000805F02D003E00120E9E7206910B12E46AA
:1033E00000250EE000260CE08021204601F072F856
:1033F000A8B9C6B116F8010B21684860E08C401EE0
:10340000E084E08C4B464FF00002CDF800800028AD
:10341000EAD14FF04001204601F05CF840B184F859
:1034200041700320C3E735F8020BC0F30800E3E75F
:1034300084F841700020BAE7704700003222024948
:103440000248FFF77DBD000028120020680100201F
:10345000F0B54E4E2DED028B81B03078012871D140
:1034600041034B48FEF7B6FE4AA0FDF777FE4C4DF0
:1034700000272878422808D041281FD043284FD061
:10348000442869D0452871D072E0454C45A0FDF72D
:1034900065FE601C01F0A4F851EC100BFCF7F2FF84
:1034A00008EE100AB0EE480AFEF726F9BDEEC80A8B
:1034B00041A010EE101AFDF751FE59E02C213848BA
:1034C000FCF7C3FE040053D043A0FDF747FE27706E
:1034D000681C01F085F851EC100BFCF7D3FF08EEE7
:1034E000900A601C01F07CF851EC100BFCF7CAFF4D
:1034F00008EE100AF0EE680AB0EE480AFEF70EF980
:1035000018EE900AFCF7ABFFBDEEC81A41EC100BA9
:1035100036A08DED001A53EC102BFDF71FFE27E0AF
:103520003BA0FDF71BFEFEF755F8052812D2DFE899
:1035300000F005030A0C0E003BA000E03DA000F0E7
:10354000C9F807E01DE03EA0F9E740A0F7E742A078
:10355000FDF704FE46A005E04EA0FDF7FFFDFDF7D8
:10356000C1FF52A0FDF7FAFD02E0FFE7FEF736F9D2
:10357000377001B054A0BDEC028BBDE8F040FDF700
:10358000EDBD01B0BDEC028BF0BD00001C000020C1
:10359000000802405461736B53746172740D0A0029
:1035A00028120020484D492053746172743A4261D8
:1035B000697363320D0A000046756E635F42617382
:1035C0006963325F5365745369676E616C3A202595
:1035D00064487A0D0A000000484D49205374617216
:1035E000743A4261697363330D0A000046756E6375
:1035F0005F4261736963325F5365745369676E61DB
:103600006C3A202566562C2564487A0D0A00000085
:10361000484D492053746172743A416476616E6317
:103620006564310D0A000000706167652070616794
:103630006533000070616765207061676534000064
:10364000706167652070616765350000706167654E
:10365000207061676536000046696C74657220549D
:103660007970653A554E4B4F574E0D0A00000000D9
:1036700046756E635F416476616E636564315F5366
:10368000747261744C6561726E696E673A6F7665CB
:10369000720D0A00484D492053746172743A4164B6
:1036A00076616E636564320D0A00000046756E5FD8
:1036B000416476616E636564325F7878783A6F76DC
:1036C00065720D0A000000005461736B4F766572DD
:1036D0000D0A000000B599B0034607A264216846B0
:1036E00000F03AFF82B24FF0FF3369460448FFF71B
:1036F00053FE19B000BD00002573FFFFFF0000005E
:1037000068010020FEE70000044B4FF4005108B1AF
:10371000002200E001221846FEF764BD00080240C6
:103720002DE9F0410D462DED028B07460122F0EE0A
:10373000608AB0EE408A002691034A48FEF752FDA7
:1037400037B308246D1E05F00301204600F0B8F8D9
:1037500018EE900A4449884200DA3F2606F0030139
:10376000601C00F0ADF8A01CC6F3810100F0A8F8C1
:10377000E01C310900F0A4F818EE100ADFED3B0A56
:10378000B6EE000AB0F17C5F04DAB0EE408A08E0E1
:103790000024D7E718EE100AB0F1854F01DDB0EE36
:1037A000608A80EE881ADFED320A70EEC10A30EED0
:1037B000800ABDEEC00A10EE105A002D01DA002575
:1037C00002E07F2D00DD7F2505F00301201D00F0C4
:1037D00077F8601DC5F3810100F072F8A01DC5F3F4
:1037E000011100F06DF8E01DC5F3801100F068F8DC
:1037F000002F32D11A3600EE106ADFED1E0AB8EE45
:10380000400A20EE200A28EE800A10EE100AB0F1DD
:103810007E5F01DAB7EE000ADFED170A80EE801A4C
:10382000BCEEC10A10EE100A401E022801D202208E
:1038300004E0B0F5803F01D34FF6FF700F490A68EE
:10384000D062C8600968400848630121BDEC028B62
:103850000A48BDE8F041FFF73BBABDEC028BBDE87A
:10386000F08100000010024000007A440000804215
:1038700000000043DB0FC93FA037204D200100208E
:1038800008B50020009000BF401C00901428FADB0F
:1038900008BD000010B5084C012291032046FEF738
:1038A000A1FC0122D1032046FEF79CFCBDE810409C
:1038B00000210248FFF7E0BA00100240200100207A
:1038C00070B51F4E0D46044600F001024FF48061B2
:1038D0003046FEF787FCC4F34002F1143046FEF791
:1038E00081FCC4F38002B1143046FEF77BFCC4F3C4
:1038F000C0024FF400513046FEF774FC05F001029F
:10390000B1153046FEF76EFCC5F340027115304626
:10391000FEF768FCFFF7B4FF0A4D4FF400440022A5
:1039200021462846FEF75EFCFFF7AAFF012221464A
:103930002846FEF757FCBDE87040FFF7A1BF000026
:1039400000180240001002407FB500241548009482
:10395000019402941249039401604FF48031C0E94C
:10396000011401250461057680F820400E49C0E964
:103970000A14C561C46080F830404561FDF7FAFF64
:1039800008B1FDF703FC0095CDE9015469460548EF
:10399000FDF73CFF002801D0FDF7F8FB7FBD0000DC
:1039A00000200140240000200100000F0D4808B550
:1039B000016841F4800101600068002200F4800089
:1039C000009011463820FEF779FD3820FEF768FD9B
:1039D000002211463A20FEF771FDBDE808403A206A
:1039E000FEF75EBD303802402DE9F04F87B014215C
:1039F0006846FCF71FFC48480024016841F00401B8
:103A00000160016801F004010591016841F0800145
:103A10000160016801F080010591016841F0010138
:103A20000160016801F001010591016841F0100198
:103A30000160016801F010010591016841F0020187
:103A40000160016801F002010591016841F0400147
:103A50000160016801F040010591016841F0080131
:103A600001600068DFF8B49000F008004FF40055E2
:103A70000590002229464846FEF7B4FBDFF8A0A0D7
:103A80004FF44046012231465046FEF7ABFBDFF8CB
:103A900094B04FF47047002239465846FEF7A2FB17
:103AA0004FF47C58002241461F48FEF79BFB002242
:103AB0000E211E48FEF796FB00950125CDE9015425
:103AC000694648460394FEF78DFACDE90065022663
:103AD000CDE9024669465046FEF784FA0097039600
:103AE000CDE9015469465846FEF77CFACDF80080CE
:103AF0000396CDE9015469460B48FEF773FA0E2090
:103B00000090CDE90154694608480394FEF76AFA2B
:103B100007B0BDE8F08F00003038024000080240D6
:103B2000001002400004024000180240000C024055
:103B30000D4810B50B4901600C49416000214FF45C
:103B400080428160C0E9031241618161C16101620B
:103B5000FEF754FB002803D0BDE81040FDF716BB6C
:103B600010BD000000540040CC000020A0860100E1
:103B700010B596B000240F941094119412941394DD
:103B80001C2108A81494FCF755FB20216846FCF77B
:103B900051FB29482749C0E900144FF6FF71C0E9DD
:103BA000024180210461C0E90541FEF7E1FF08B14F
:103BB000FDF7ECFA4FF480500F900FA91E48FFF765
:103BC00019F808B1FDF7E2FA1B48FFF727F908B129
:103BD000FDF7DCFA139413A917481494FEF780FF3D
:103BE00008B1FDF7D3FA602008903220CDE909042E
:103BF0000B940C940D94002208A90F480E94FFF723
:103C0000A7F808B1FDF7C2FA00944FF40050CDE9CF
:103C10000440029401940394694607480794FEF710
:103C200035FF08B1FDF7B2FA0348FFF765F816B0A3
:103C300010BD000000000140200100200C4810B51C
:103C40000A4901604FF4E1314160002181600C229A
:103C5000C160C0E904128161C161FFF7EFFA002879
:103C600003D0BDE81040FDF791BA10BD001001402F
:103C7000680100200C4810B50A4901604FF4E13199
:103C80004160002181600C22C160C0E904128161A1
:103C9000C161FFF7D3FA002803D0BDE81040FDF75B
:103CA00075BA10BD00480040B0010020FEE7FEE7F5
:103CB000704700002DE9F04100252DED028B84B006
:103CC00040F6FF740090012001902E460295039566
:103CD00069462448FDF79AFD9FED238AC0BB234F18
:103CE0003E704FF48068424621491E48FDF7B8FEF9
:103CF00070BB4FF47A7603E00120FEF761F9761E7F
:103D0000387830B31748FDF757FF0EB3184A002133
:103D10004FEA080332F81100A84200D90546A04234
:103D200000D20446491C9942F4DB00EE105AF8EE2A
:103D3000400A00EE104AB8EE400A30EEC00ADFED4D
:103D40000D0A20EE200A04B0BDEC028BBDE8F08124
:103D500004E0002ED0D10348FDF72EFFB0EE480A54
:103D6000F1E7000024000020000000001000002007
:103D7000280A00206740533A7047FEF737BB00001F
:103D800030B593B030216846FCF754FA14210CA8E2
:103D9000FCF750FA1D480025016841F08051016090
:103DA000006800F0805011901948016841F480418A
:103DB00001600068022400F480401190012003900B
:103DC00010200490009406940820CDE90750A82004
:103DD000CDE9090404200B906846FEF78DFC08B17C
:103DE00072B6FEE70CA90F2081E831004FF4A05015
:103DF0000F904FF48050109005210CA8FEF790FB17
:103E0000002801D072B6FEE713B030BD4038024042
:103E1000007000400248016841F470010160704781
:103E200088ED00E0F0B50268274B284D284E294F59
:103E3000294C4FF0804C984209D0604507D0A842E9
:103E400005D0B04203D0B84201D0A04204D122F044
:103E5000700E4A6842EA0E0298421BD0604519D0A3
:103E6000A84217D0B04215D0B84213D0A04211D00A
:103E70001A4DA8420ED01A4DA8420BD0194DA84297
:103E800008D0194DA84205D0184DA84202D0184DAF
:103E9000A84203D122F44075CA682A434D6922F032
:103EA00080022A438D68C5620D688562984201D000
:103EB000A04201D109690163016841F00401016078
:103EC000012141610260F0BD00000140000400409A
:103ED00000080040000C0040000401400040014088
:103EE000004401400048014000180040001C004010
:103EF0000020004010B501F01F030121046A994021
:103F00008C430462016A9A401143016210BD10B5EE
:103F1000846842EA032224F47F440A4322438260F5
:103F200010BD826822F070020A4342F007018160EE
:103F300070470000F0B5036A026A22F001020262D3
:103F400042688469124E24F073050C682C4323F0F8
:103F500002058B682B430D4DA84201D0B04205D11C
:103F600023F00807CB683B4323F00403A84201D0A9
:103F7000B04205D14D6922F4407215438A692A4343
:103F800042608461496841630362F0BD0000014002
:103F900000040140F0B5026A036A23F010030362D3
:103FA000436884690D6824F4E64444EA05248D6876
:103FB00022F0200242EA05120F4D104EA84201D015
:103FC000B04206D1CF6822F0800242EA071222F006
:103FD0004002A84201D0B04207D14D6923F44063AA
:103FE00043EA85038D6943EA850343608461496838
:103FF00081630262F0BD0000000001400004014046
:10400000F0B5026A036A23F4807303624368C469EB
:1040100022F4007224F073050C68124E2C438D6854
:1040200042EA05220E4DA84201D0B04206D1CF6827
:1040300022F4006242EA072222F48062A84201D000
:10404000B04207D14D6923F4405343EA05138D690B
:1040500043EA05134360C4614968C1630262F0BD6D
:10406000000001400004014030B5046A026A22F4F5
:10407000805202624268C3690D6823F4E64343EA52
:1040800005238D6824F4005444EA0534084DA84201
:1040900002D0084DA84204D14D6922F4804242EA80
:1040A00085124260C36149680164046230BD00004A
:1040B000000001400004014010B5036A046A24F0C6
:1040C00001040462846924F0F00444EA021423F039
:1040D0000A020A438461026210BD10B5036A046AD1
:1040E00024F010040462846923F0A00324F47044D3
:1040F00044EA023243EA01118261016210BD10B547
:10410000806B0021C185FEF757FF10BD70B5846B31
:104110002068406994F84110C0F3C010002521299F
:1041200004D118B1E584204600F08EF8206840697B
:1041300094F84210C0F38010222904D118B1E5850B
:10414000204600F05AF8606C40F010006064204691
:10415000FEF732FF70BD10B50146806B0968096833
:104160004FF00002C9052ED4C28501680C3151E818
:10417000003F23F4807341E80034002CF5D101683E
:10418000143151E8003F23F0010341E80034002CD2
:10419000F5D10168143151E8003F23F0400341E8B4
:1041A0000034002CF5D1202180F84210016B012948
:1041B00009D101680C3151E8003F23F0100341E8B8
:1041C0000034002CF5D14263016B012902D0FFF7C6
:1041D000E1F810BD818DFEF7D9FE10BD10B5806BE2
:1041E00001214163016B012902D0FFF7D4F810BD12
:1041F000818D4908FEF7CAFE10BD01680C3151E8F7
:10420000002F22F4907241E80023002BF5D10168C1
:10421000143151E8002F22F0010241E80023002B65
:10422000F5D1016B012909D101680C3151E8002F4A
:1042300022F0100241E80023002BF5D1202180F864
:10424000421000210163704701680C3151E8002FD2
:1042500022F0C00241E80023002BF5D1202180F894
:104260004110704708B590F84210222901D0022071
:1042700008BD82684FF480539A4201D1016921B18F
:10428000816A9A421BD04AB10AE00268816A526888
:10429000C2F308020A80816A891C08E0026972B1CF
:1042A0000268526802F07F020A70816A491C8162CA
:1042B000C18D491E0904090CC18503D01BE00268A9
:1042C0005268F1E70168CA6822F02002CA600168FA
:1042D000CA6822F48072CA6001684A6922F0010249
:1042E0004A61202180F8421000214163026B012ABB
:1042F00003D0FFF74FF8002008BD016301680C31BF
:1043000051E8002F22F0100241E80023002BF5D1E4
:1043100001680A68D20602D50A6849680091818D51
:10432000FEF734FEE7E7000070B504460068016957
:10433000E26821F44051114301612169A068E269FA
:1043400008436169114308432168CA6849F20C6354
:104350009A430243CA6020684169A26921F440710E
:104360001143416131492068884202D03049884276
:1043700002D1FEF77FF901E0FEF76CF9E269002354
:10438000192164253226B2F5004F626828D0A0FBBF
:104390000101930F9200FBF715FF0146B0FBF5F00A
:1043A0006FF01802504301EB800006EB0010B0FBE9
:1043B000F5F000F0F002B1FBF5F002EB0012B1FBFA
:1043C000F5F06FF01803584301EB800006EB001086
:1043D000B0FBF5F000F00F0021681044886070BD5C
:1043E000A0FB010192185B41FBF7ECFE0146B0FB1C
:1043F000F5F00201B1FBF5F06FF01803584301EB43
:10440000800006EBC000B0FBF5F000F0F80002EB16
:104410004002B1FBF5F0584301EB800006EBC00011
:10442000B0FBF5F000F00700D6E7000000100140F7
:104430000014014038B5816204468285002013468D
:104440006064222284F84220E56B1F4AEA63E56B30
:104450001E4A2A64E56B1E4AEA64E26B10650A464E
:104460002168E06B091DFDF773FD30B11020606419
:10447000202084F84200012038BD2068016840688F
:104480000090206948B120680C3050E8001F41F4CA
:10449000807140E80012002AF5D12068143050E8FD
:1044A000001F41F0010140E80012002AF5D1206808
:1044B000143050E8001F41F0400140E80012002A8B
:1044C000F5D1002038BD000057410008DD4100084B
:1044D0000D4100082DE9F843984617460D4604465D
:1044E000089E24E0701C22D0FDF782FEA0EB08009D
:1044F000B0421AD8CEB12068C168490717D5802DBF
:1045000015D0402D13D00168C94309070FD40168A5
:104510000025406800902046FFF76FFE0820606489
:1045200084F840500120BDE8F8830320FBE72068B1
:10453000006835EA000004D00020B842D2D0002044
:10454000F1E70120F9E700000148FEF737BD000060
:1045500068010020FEE700000FB47CB50C0009AD37
:1045600001D0611E00E00021CDE90001064B6A4642
:104570002946089800F036F9002C02D0009A002154
:1045800011707CBC5DF814FBEB4E00087CB50C0090
:104590001D461646014601D0601E00E00020CDE910
:1045A0000010064B6A462946304600F01BF9002CE5
:1045B00002D0009A002111707CBD0000EB4E000873
:1045C0000907090E002804DB00F1E02080F8001440
:1045D000704700F00F0000F1E02080F8141D7047D4
:1045E00030B583B0044600F017F89FED090B05467F
:1045F0008DED000B002221466846FBF7B0FF2846F0
:1046000000F020F89DED000B03B030BD000000006D
:104610000000000000000000014800687047000032
:104620002000002002E008C8121F08C1002AFAD1A9
:1046300070477047002001E001C1121F002AFBD122
:10464000704700000149086070470000200000200A
:104650002DE9FF5F82B00021DDE90430020DDDF8B5
:1046600040B0034318D044F61050A2F2FF32424348
:104670001514119801281FD0A5EB0B00401C5FEA10
:10468000000A4FF000064E4FDFF83891B046504612
:1046900015D5CAF1000413E0119801244AA301289A
:1046A00001D16FEA0B010298119AC0E90031C0E90B
:1046B000024206B0BDE8F09FCBF10000DFE7044600
:1046C0000021404A491842EB0450CDE9001012E0A5
:1046D000E00707D032463B4640464946FBF7BFFD60
:1046E0008046894632463B4610461946FBF7B7FDE1
:1046F00006460F466410002CEAD1DDE90401DDE92D
:104700000023BAF1000F06DAFBF7A9FD42464B463B
:10471000FBF7A5FD05E0FBF714FE42464B46FBF711
:1047200010FE04460E460022284BFCF79FF803D8E3
:104730004FF0FF30014607E00022254B204631466E
:10474000FBF7D4FFFCF779F8102409E0002C0ADB12
:104750000A220023FBF736FD039B30321A55641EF4
:1047600050EA0102F2D1641C039AC4F1110314440B
:10477000119A012A03D0012208430DD10AE008430F
:1047800004D000204FF0110B119072E7A3EB0B0542
:104790006D1E0DE05B4504DD4FF0000205F10105E3
:1047A00004E003DA4FF00002A5F10105002AECD085
:1047B00002981199C0E90231C0E9004579E700008B
:1047C000000014400000F03F300000000000F04303
:1047D0000000E03F30380A2801D201207047002055
:1047E000704700002DE9FF4F95B09A46884606466F
:1047F0000025EEE1252877D100242746F94A01213A
:10480000039400E0044316F8013F203B01FA03F053
:104810001042F7D130782A2811D06FF02F0330786A
:10482000A0F13002092A16D8039A44F0020402EBE0
:10483000820203EB42021044761C0390EFE758F823
:10484000042B0392002A03DA504244F400540390EC
:1048500044F00204761C30782E2816D116F8010F89
:1048600044F004042A280DD06FF02F023078A0F114
:104870003003092B09D807EB870302EB4303C71862
:10488000761CF3E758F8047B761C30786C280FD040
:1048900006DC4C2817D068280DD06A2814D104E013
:1048A000742810D07A280FD10DE044F400140AE0E7
:1048B00044F4801401E044F440147278824202D13E
:1048C00004F58014761C761C307866280BD013DC37
:1048D000582877D009DC002875D04528F6D046281E
:1048E000F4D047281AD193E118E0632835D0642822
:1048F00079D0652812D18BE1702873D008DC672845
:10490000F1D069286FD06E280DD06F2806D1ACE0A9
:1049100073282CD0752874D0782853D05246179914
:1049200090476D1C54E1C4F30250022809D00328BB
:104930000DD0D8F8001004280DD00D6008F104083F
:1049400046E1D8F80010EA17C1E90052F6E7D8F8B6
:1049500000100D80F2E70D70F0E718F8041B8DF8D9
:10496000001000208DF80100EB46012003E058F80C
:1049700004BB4FF0FF3061074FF0000102D40DE09F
:1049800009F101018946B9420FDA8145F8DB1BF8CC
:1049900009100029F4D108E009F10101894681429A
:1049A000FADB1BF809100029F6D103985346A0EB57
:1049B000090721463846179A00F080FA284400EB90
:1049C000090507E044E008E10DE01BF8010B524641
:1049D00017999047B9F10109F7D253462146384655
:1049E000179AF2E039E00A21C4F302524FF0000BAB
:1049F0000091022A06D058F8040BC117032A09D0E7
:104A00000AE023E008F1070020F00702F2E80201C3
:104A1000904605E000B2C117042A01D140B2C11787
:104A2000002906DA0A460021404261EB02012D22EC
:104A300002E0220504D52B228DF80420012203E098
:104A4000E20701D02022F7E7914657E00A2100E073
:104A500010214FF0000B00910BE010214FF0000BE4
:104A600044F004040827009103E008204FF0000BF5
:104A70000090C4F30252022A05D058F8040B00211A
:104A8000032A08D008E008F1070020F00702F2E846
:104A90000201904603E080B2042A00D1C0B24FF078
:104AA000000922072AD53278702A07D0DDF800C025
:104AB0008CF0100C5CEA0B0C05D00EE040228DF857
:104AC0000420012208E050EA010306D030238DF8CB
:104AD00004308DF8052002229146009B83F00803E4
:104AE00053EA0B030AD150EA010201D1620705D54E
:104AF00030228DF804204FF001097F1E3278582AA9
:104B000004D039A20C920CAA02920BE03BA2F9E766
:104B10005B46009AFBF756FB0C9B9B5C029A521E6D
:104B20000292137050EA0102F2D1029804A9081A05
:104B300000F1200B600702D524F4803400E0012747
:104B40005F4502DDA7EB0B0000E0002000EB0B014E
:104B5000009003984944401A0390E00306D453465A
:104B60002146179A039800F0A9F90544002706E0AA
:104B700001A85246C05D179990476D1C7F1C4F4598
:104B8000F6DBE0030CD553462146179A039800F054
:104B900095F9054404E030205246179990476D1C62
:104BA0000099481E00900029F5DC08E0029802995F
:104BB00052460078491C0291179990476D1CBBF131
:104BC0000001ABF1010BF1DC5BE100F065F905449C
:104BD000761C307800287FF40DAE19B02846BDE869
:104BE000F08F000009280100303132333435363778
:104BF0003839616263646566000000003031323329
:104C000034353637383941424344454600000000C8
:104C1000600700D4062708F1070020F00700F0E83D
:104C20000223804603F0004C5FEA0C0001D097A0FD
:104C300009E0200501D596A005E0E00701D095A088
:104C400001E0AFF24C001390307823F00043652868
:104C50000CD006DC452809D046281DD047287FD136
:104C60003BE0662818D067287AD136E00021112F62
:104C700001DB112000E0781CCDE9000104A90CA89B
:104C8000FFF7E6FCDDE90D010C9A4FF0000B07F190
:104C90000109109200914EE04FF000400097CDE9DD
:104CA000011004A90CA8FFF7D3FCDDE90D020C9B51
:104CB0000F994FF0000B91461093009211B9791C97
:104CC00000EB0109B7EB090003D4C0F1FF3B07F18A
:104CD0000109A9EB0700019042E0012F00DA01274A
:104CE0000021112F01DD112000E03846CDE900013F
:104CF00004A90CA8FFF7ACFCDDE90D010C9A0091AA
:104D00004FF0000BB946109221070FD4009A4A4584
:104D100003DA914601E0A9F10109B9F1010F05DDBE
:104D2000109AA9F10101515C3029F4D0B84202DA9D
:104D300010F1040F03DA0121CDE9011010E0002881
:104D400003DC8344A9EB000102E0411C494500DD7E
:104D50008946A0EB0B00401C01904FF000400290F0
:104D6000200705D40198484502DB4FF0FF30019041
:104D700000208DF84B0002980DF14B07B0F1004F69
:104D800025D002200C902B200D90029800280CDAE0
:104D9000404202902D200D9007E00A210298FBF777
:104DA0008DFB3031029007F8011D0C99481E0C90C4
:104DB0000029F2DC02980028EFD1791E0D980870C6
:104DC000307800F0200040F0450007F8020D11A8EF
:104DD000C01BC01D02901398007800B1012000EBA9
:104DE0000901019801EBE071029801440398401A0F
:104DF000401E0390E00306D453462146179A0398B9
:104E000000F05CF805441398007818B152461799E1
:104E100090476D1CE00323D553462146179A03980B
:104E200000F04CF805441BE0BBF1000F07DB0098D5
:104E3000584504DD1098179910F80B0001E01799F8
:104E400030205246904701980BF1010B401E05F1AE
:104E50000105019004D12E205246179990476D1CF0
:104E6000B9F10001A9F10109DEDC05E017F8010B39
:104E70005246179990476D1C0299481E02900029CE
:104E8000F4DC53462146179A03989EE62D00000055
:104E90002B000000200000002DE9F0410446002511
:104EA0001E461746880404D405E039462020B04742
:104EB0006D1C641EF9D52846BDE8F0812DE9F0414E
:104EC000044600251E469046C80301D5302700E061
:104ED0002027880404D505E041463846B0476D1CBC
:104EE000641EF9D52846BDE8F0814A68002A06D03C
:104EF0000A68531C0B6010704868401E4860704779
:104F0000FDF77CFAFEF73CFFFEF76EFDFEF74EFD67
:104F1000FEF71AFDFEF792FEFEF7ACFEFEF728FE46
:104F2000FEF706FE0120FEF7EFFB4FF4FA74204671
:104F3000FDF746F8FCF740FCFEF780FAFEF7AAFC06
:104F400001210BA0FCF70AF90020FEF7DDFB600051
:104F5000FDF736F80120FEF7D7FB2046FDF730F8C5
:104F60000020FEF7D1FB00BFFEF772FAFCE700005D
:104F700053797374656D2053746172743A25640DAE
:104F80000A000000000610160006101600000000BF
:104F900000000000010203040607080900000000E9
:104FA00001020304DDDDDDDDDCBBBBDDDDDDDDDDE0
:104FB000DDDDDDDD98888888888888887777777751
:104FC000778888888555555666666666666666661D
:104FD00066688888833333322222222222222222C8
:104FE0002228888D045000080000002024000000C2
:104FF000244600082850000824000020BC160000A9
:10500000344600080100000010000000000000000D
:105010000024F4000004000000007A44F4FD343F52
:08502000000000000000000088
:040000050800018965
:00000001FF
