:020000040800F2
:100000007006002029020008D70E0008610E0008C3
:10001000D50E0008C9050008850F00080000000083
:10002000000000000000000000000000DB0E0008DF
:10003000CB05000800000000D90E0008DD0E000806
:10004000430200084302000843020008430200087C
:10005000430200084302000843020008430200086C
:10006000430200084302000843020008430200085C
:10007000430200084302000843020008430200084C
:10008000430200084302000843020008430200083C
:10009000430200084302000843020008430200082C
:1000A000430200084302000843020008430200081C
:1000B000430200084302000843020008430200080C
:1000C00043020008430200084302000843020008FC
:1000D00043020008430200084302000843020008EC
:1000E00043020008430200084302000843020008DC
:1000F00043020008430200084302000843020008CC
:1001000043020008430200084302000843020008BB
:1001100043020008430200084302000843020008AB
:10012000430200084302000843020008430200089B
:10013000430200084302000843020008430200088B
:10014000430200084302000843020008430200087B
:10015000430200084302000843020008430200086B
:10016000430200084302000843020008430200085B
:100170004302000843020008430200080000000098
:10018000430200084302000800F002F800F03CF8C7
:100190000AA090E8000C82448344AAF10107DA45E2
:1001A00001D100F031F8AFF2090EBAE80F0013F0F8
:1001B000010F18BFFB1A43F0010318471414000085
:1001C00034140000103A24BF78C878C1FAD8520716
:1001D00024BF30C830C144BF04680C6070470000C1
:1001E0000023002400250026103A28BF78C1FBD840
:1001F000520728BF30C148BF0B6070471FB501F0E0
:10020000DAF91FBD10B510BD00F0CFF81146FFF7A9
:10021000F5FF00F0C9FE00F0EDF803B4FFF7F2FFC0
:1002200003BC00F0F5F80000094880470948004782
:10023000FEE7FEE7FEE7FEE7FEE7FEE7FEE7FEE796
:10024000FEE7FEE704480549054A064B70470000F3
:10025000750F00088901000870000020700600205A
:10026000700200207002002053EA020C00F0698046
:100270002DE9F04B4FF00006002B1FBFB3FA83F5BA
:1002800003FA05F424FA05F65E4012BF1643B2FAEB
:1002900082F502FA05F4C5F120051EBF22FA05FC1D
:1002A00044EA0C04203556EA044C4FEA144418BFC3
:1002B000641C4FF000084FF00009904271EB030CF2
:1002C00039D3002919BFB1FA81F701FA07F6B0FA5C
:1002D00080F700FA07F6C7F120071EBF20FA07FCD7
:1002E00046EA0C062037B6FBF4FCA7EB0507103FE7
:1002F00007F01F0BCBF120060CFA0BFB2CFA06F6CD
:1003000044BFB3460026202FA4BF5E464FF0000B2B
:100310005BEA060C08BF4FF0010B19EB0B09ABFBB6
:10032000027C48EB0608C01B06FB02CC0BFB03CC8F
:1003300071EB0C01C1E70B46024641464846BDE859
:10034000F08B13B54FF000004FF00001AFF30080C9
:10035000BDE81C4070474FF0000200B513469446BC
:100360009646203922BFA0E80C50A0E80C50B1F10D
:100370002001BFF4F7AF090728BFA0E80C5048BF21
:100380000CC05DF804EB890028BF40F8042B08BFBF
:10039000704748BF20F8022B11F0804F18BF00F8BB
:1003A000012B7047704770477047754600F02CF876
:1003B000AE4605006946534620F00700854618B052
:1003C00020B5FFF73FFFBDE820404FF000064FF09B
:1003D00000074FF000084FF0000B21F00701AC467A
:1003E000ACE8C009ACE8C009ACE8C009ACE8C00999
:1003F0008D46704710B50446AFF300802046BDE837
:100400001040FFF70ABF00000048704710000020AE
:1004100001491820ABBEFEE726000200704700002D
:100420002DE9F047184E04464FF480590022494602
:10043000304600F0E7F944F4885500244FF40058A2
:100440004FF4804700223946304600F0DBF928049B
:1004500001D5012200E000224146304600F0D2F9E9
:100460006D0001223946304600F0CCF900F00EF85C
:10047000641CE4B2102CE5D349463046BDE8F04791
:10048000012200F0BFB90000000402400020401C1F
:100490000004000CFBD070472DE9F0419FED281BB4
:1004A00090462DED028B0C4605469FED238B53ECB9
:1004B000112B51EC100B00F087FD53EC182B00F0C2
:1004C0000BFF00F0D9FEC0F30D06C0F38D3748F4E2
:1004D00040484FF4807000F037F84FF4045000F0BB
:1004E00033F815B1012D05D010E046F4804047F4F3
:1004F000804503E046F4004047F4004500F024F84E
:10050000284600F021F8404600F01EF854B1022CB5
:100510000BD0012C0CD16003BDEC028BBDE8F04187
:1005200000F012B842F20200F6E742F22800F3E7C8
:10053000BDEC028BBDE8F08100000040E17A64412F
:100540000000000080842E412DE9F04701221D4E5D
:10055000054697033946304600F054F94FF40048F9
:10056000012244464146304600F04CF90022214623
:10057000304600F047F900244FF40059280401D513
:10058000012200E000224946304600F03BF9FFF727
:100590007DFF00223946304600F034F9FFF776FF40
:1005A00001223946304600F02DF9641C6D00E4B29A
:1005B000102CE3D341463046BDE8F047012200F05D
:1005C00021B9000000040240FEE7704710B510EEAC
:1005D000100A00F07FFF41EC100B002201211046B1
:1005E000FFF75AFFBDE81040FF20FFF719BF0000DA
:1005F00010B50022012110469FED040BFFF74CFFC0
:10060000BDE810400020FFF70BBF00000000000015
:10061000000000002DE9F84FDFF8BCA10022012501
:1006200003264FF00F090AF1040BAAF1040E00BFD4
:100630000B6805FA02F42340A34270D10F7907F04A
:100640000307012F01D0022F16D187684FEA420815
:1006500006FA08FC27EA0C07D1F80CC00CFA08FCD3
:100660004CEA070CC0F808C04768A7430C79C4F3EC
:10067000001494403C4344600C79E443A4070AD03E
:10068000C4684FEA420C06FA0CF7BC438F6807FABD
:100690000CF72743C7600C7904F00304022C12D135
:1006A000D40800EB840CDCF820405707FF0E09FA51
:1006B00007F824EA0804D1F8108008FA07F848EA95
:1006C0000408CCF8208004684FEA420C06FA0CF7C4
:1006D000BC430F7907F0030707FA0CF727430760BD
:1006E0004C6814F4403F70D03C4C276847F4804776
:1006F0002760246822F0030704F480440094384CF7
:1007000007EB040CDCF8084897074FEA177809FA5A
:1007100008F7BC43334FB84202D1002724E054E02D
:10072000314FB84201D101271EE0304FB84201D10C
:10073000022719E02E4FB84201D1032714E02D4FB4
:10074000B84201D104270FE02B4FB84201D1052751
:100750000AE02A4FB84201D1062705E0284FB842E7
:1007600001D1072700E0082707FA08F72743CCF84C
:100770000878DAF800405746D1F804C09C435FEA95
:10078000CC2C00D51C433C60DBF800405F46D1F820
:1007900004C09C435FEA8C2C00D51C433C60DEF80F
:1007A00000407746D1F804C09C435FEA8C3C00D5FA
:1007B0001C433C60084F083F3C68D1F804C09C4390
:1007C0005FEACC3C00D51C433C60521C102AFFF46D
:1007D0002FAFBDE8F88F0000083C014044380240CC
:1007E00000300140000002400004024000080240C6
:1007F000000C0240001002400014024000180240A9
:10080000001C02400AB1816170470904FBE7000047
:10081000014880687047000000000020024881689D
:100820000278114481607047000000200B4810B529
:10083000016841F400710160016841F48061016068
:10084000016841F480710160032000F061F80F201D
:1008500000F006F800F024F8002010BD003C024033
:1008600070B50D4D04464FF47A712878B1FBF0F065
:100870000A490968B1FBF0F000F0DEFA48B9102C23
:1008800007D200222146501E00F022F800206C60A2
:1008900070BD012070BD0000000000200C00002091
:1008A0000A4808B5016841F480410160006800F41D
:1008B000804000900548001F016841F080510160B0
:1008C000006800F08050009008BD000044380240ED
:1008D000F0B40E4B1B680C46C3F30223C3F10705AB
:1008E000042D00D90425191D072901D2002300E099
:1008F000DB1E012606FA05F1491E214099409E4063
:10090000761E16403143F0BC00F03DBB0CED00E01C
:10091000064900F0070208684FF6FF03184040EA56
:100920000220034A10430860704700000CED00E00D
:100930000000FA052DE9F0470E46050065D0DFF806
:100940001481D8F80000F7B200F00700B04207D2D7
:1009500088F80070D8F8000000F00700B04254D1C9
:1009600028683D4C810712D5400703D5206840F424
:10097000E05020602878000703D5206840F46040EC
:1009800020602068A96820F0F000084320602878E3
:10099000C0072DD0304968680839012812D00228D4
:1009A00013D0032811D00968890700292DDA21689E
:1009B00021F0030101432160FFF72AFF814641F244
:1009C000883A0EE009688903EFE709688901ECE7D6
:1009D000FFF71EFFA0EB0901514502D90320BDE836
:1009E000F0872068696800F00C00B0EB810FEFD150
:1009F000D8F80010404601F00701B14207D907704E
:100A0000006800F00700B04201D00120E7E7287835
:100A1000400705D52068E96820F4E05008432060CD
:100A20002878000706D52068296920F4604040EA4C
:100A3000C100206000F018F82168084AC1F30311D2
:100A4000515CC8400649086006480068FFF708FF87
:100A50000020C4E7003C024008380240C0150008EE
:100A60000C00002004000020154810B5006810F0AC
:100A70000C02144813D01449042A0FD0082A0ED1AE
:100A80000F4C241F2268236802F03F025B0207D547
:100A90002068C0F38810A0FB010106E0084610BDE5
:100AA0002168C1F38811A1FB00010023FFF7DCFBE3
:100AB0002168C1F30141491C4900B0FBF1F010BDB0
:100AC000083802400024F40040787D012DE9F84FF9
:100AD00004006ED02078DFF84C93C007A9F104051C
:100AE0004AD009F104000168C1F38101012908D04D
:100AF0000068C0F3810002280AD1D9F80000400242
:100B000006D52868800337D560680028E1D033E037
:100B10006068B0F5803F10D0B0F5A02F286810D0E5
:100B200020F480302860286820F4802028606068E5
:100B3000A8B1FFF76DFE06460DE0286840F480304E
:100B4000F4E740F480202860F7E700BFFFF760FE7D
:100B5000801B642873D828688003F7D50CE0FFF762
:100B600057FE064605E000BFFFF752FE801B6428D3
:100B7000F0D828688003F7D42078DFF8AC828007AB
:100B80004FF0000A3ED5A748001D016811F00C0F78
:100B900008D00068C0F3810002280BD1D9F800000A
:100BA000400207D42868800716D5E068012800D1E4
:100BB00012E033E1E068B8B10120C8F80000FFF7A7
:100BC00027FE064605E000BFFFF722FE801B022835
:100BD000C0D828688007F7D52868216920F0F80078
:100BE00040EAC10028600DE0C8F800A0FFF710FE41
:100BF000064604E0FFF70CFE801B02281FD8286879
:100C00008007F7D42078000722D5864F874861698E
:100C1000703771B101210160FFF7FAFD064604E06B
:100C2000FFF7F6FD801B022809D838688007F7D542
:100C30000EE0C0F800A0FFF7EBFD064605E082E0FD
:100C4000FFF7E6FD801B02287DD838688007F7D4BF
:100C50002078400768D5DFF8CCB100270BF13C0BBA
:100C6000DBF80000C0000BD4DBF8001041F080512D
:100C7000CBF80010DBF80000012700F08050009056
:100C80006B4E3068C00510D4306840F4807030601E
:100C9000FFF7BEFD009005E0FFF7BAFD0099401A8E
:100CA000022850D83068C005F6D55E4EA0686C3674
:100CB00001280FD00528306810D020F001003060E6
:100CC000306820F004003060A068B8B1FFF7A0FDE4
:100CD00000900FE0306840F00100F4E740F00400BD
:100CE0003060F7E7FFF794FD0099411A41F2883030
:100CF000814266D830688007F4D50EE0FFF788FDA2
:100D0000009007E0FFF784FD0099411A41F2883016
:100D1000814256D830688007F4D42FB1DBF8001038
:100D200021F08051CBF80010A069C8B33D49091DDE
:100D30000968C1F3810102294AD00228504607D030
:100D4000C8F8600000E03CE0FFF762FD04463BE0CD
:100D50004746C8F86000FFF75BFD064605E000BFA8
:100D6000FFF756FD801B02282BD828688001F7D496
:100D7000D4E907010843A16A2E4A490802EB014160
:100D8000626A41EA8211084394F82C1040EA01613A
:100D9000C9F8001001203866FFF73AFD044606E066
:100DA0003EE000BFFFF734FD001B022809D8286889
:100DB0008001F7D534E000BFFFF72AFD001B0228B1
:100DC00002D90320BDE8F88F28688001F4D427E019
:100DD0000128F7D0D9F80000E26900F480019142BF
:100DE0001CD1226A00F03F01914217D147F6C07131
:100DF000626A0140B1EB821F10D1A26A4FF0FF334B
:100E000000F4403103EB5202B1EB024F06D194F8EB
:100E10002C1000F07060B0EB016F01D00120D1E721
:100E20000020CFE70438024000004742800E4742CE
:100E3000007000400000FFFF10B5401EB0F1807F41
:100E400001D3012010BD4FF0E02460610F21601735
:100E500000F099F80020A06107202061002010BD5B
:100E6000FEE7000070B586B014216846FFF773FAFC
:100E700016480025016841F080010160016801F019
:100E800080010591016841F002010160016801F0F3
:100E900002010591016841F00101016000680C4EFA
:100EA00000F001004FF470440590002221463046C6
:100EB000FFF7A8FC0120CDE900400220CDE9025057
:100EC00069463046FFF7A6FB06B070BD30380240D9
:100ED00000040240FEE7FEE770477047FFF79EBC44
:100EE00030B593B030216846FFF735FA14210CA8CD
:100EF000FFF731FA1D480025016841F0805101607B
:100F0000006800F0805011901948016841F4804158
:100F100001600068022400F48040119001200390D9
:100F200010200490009406940820CDE90750A820D2
:100F3000CDE9090404200B906846FFF7C7FD08B10E
:100F400072B6FEE70CA90F2081E831004FF4A050E3
:100F50000F904FF48050109005210CA8FFF7EAFC89
:100F6000002801D072B6FEE713B030BD4038024011
:100F7000007000400248016841F470010160704750
:100F800088ED00E0FEE70907090E002804DB00F108
:100F9000E02080F80014704700F00F0000F1E0201E
:100FA00080F8141D70470000FFF740FCFFF798FF22
:100FB000FFF758FFFFF71CFB9FED020AFFF706FB48
:100FC000FEE70000002474492DE9C04130B4DFF889
:100FD000A0C23CEA111418BF3CEA131400F0EC80E4
:100FE00081EA03051CEA111444EAD57418BF1CEA0F
:100FF000131500F0C780A4EB05044FF0004545EA47
:10100000C12145EAC32341EA505143EA525304F156
:101010007F74994204F500344FEAC0204FEAC2229F
:1010200008BF904200F09C804FEA13650FF2401613
:10103000765D4FEA134506FB05F7C7F1807706FB9F
:1010400007F74FEAD737A7FB03687642C8F5803821
:10105000A7FB06CE38BFA8F1010807FB08E64FF052
:10106000000EA6FB028CE6FB03CEDCF1000CCEF1F9
:10107000004E38BFAEF1010EA6FB0C584FF0000732
:101080004FF00005E6FB0E87A1FB08C6A0FB07CECC
:1010900016EB0E0645F10005E1FB076515F1E04E84
:1010A0007EBFA4F580345FEA46066D4116F18007E5
:1010B00045F100054FEA17274FEA066647EA05673C
:1010C000A6F1DE46B6F1805F4FEA15251FD93846F6
:1010D00024F0010C05EBC471BCF1FE6F01EB0C11A7
:1010E00002D8F0BCBDE8008124425CBF01F5801E3F
:1010F0009EEAC47F02D4F0BCBDE80081244238D40B
:10110000F0BCA1F1C041BDE8004100F0DDB94FEAFB
:10111000D22242EA43524FEAD323A7FB02864FEA88
:10112000D02040EA415007FB03661EEA0E0F4FEA4B
:10113000D12105FB026658BFA6EB0056B6EB005660
:101140004FEA520E4EEAC37E18EB0E0E56EB530ECC
:10115000BDD518EB02085E417F1C55F10005B6E7CE
:101160004FF480154FF000074FF000064FF00008D5
:10117000ADE7F0BC4FF0000001F1C04101F00041CB
:10118000BDE8008111EA0C1F0CEA131500D00CE039
:1011900013EA0C1F00F025804FF00000F0BC81EA3C
:1011A000030101F00041BDE80081F0BCBDE8004151
:1011B00081EA030100F088B9F0BCBDE8004170B5D8
:1011C00000F034F9097EFC3E00F007B881EA030123
:1011D0004FF0000001F00041704781EA030100F088
:1011E00073B9F0BCBDE800414FF0000021497047E1
:1011F000FFFDFBF9F7F5F4F2F0EEEDEBE9E8E6E4DC
:10120000E3E1E0DEDDDBDAD8D7D5D4D3D1D0CFCD62
:10121000CCCBCAC8C7C6C5C4C2C1C0BFBEBDBCBB9B
:10122000BAB9B8B7B6B5B4B3B2B1B0AFAEADACAB96
:10123000AAA9A8A8A7A6A5A4A3A3A2A1A09F9F9E70
:101240009D9C9C9B9A999998979796959594939322
:10125000929191908F8F8E8E8D8C8C8B8B8A8989B9
:10126000888887878685858484838382828181803C
:101270000000FF070000F87F4FEA41034FEA535395
:10128000A3F58063D3F11E03C8BFD3F1210C0CDD9D
:101290004FF0004242EAC12242EA505232FA03FCC5
:1012A0008CEAE17CACEBE1707047102BC4BF0020EE
:1012B000704703F5787CBCF1FF3F04D06FF000422B
:1012C00082EA2100704770B500F0B0F8499224809E
:1012D00000207047F2E70000DFF848C170B51CEA53
:1012E000111E1EBF1CEA13159EEA0C0F95EA0C0F87
:1012F00000F06F8081EA030423EA4C134EEAD47EA7
:1013000021EA4C1141F4801143F48013AE44A1FB57
:10131000024CA0FB0365AEF17F7E361955EB0C0540
:10132000A1FB034C4CF10003A0FB021C16EB0C06C6
:10133000654153F10003094218BF46F0010613F45A
:10134000007F0BD14FEA03314FEA0530340341EA05
:10135000155140EA16506FF003020AE04FEAC3212C
:101360004FEAC520F40241EA555140EA56506FF069
:10137000020202EB2E4201EB025585EACE710AD041
:101380005FEA440C18BF24F0004450F1000041F122
:10139000000120EAD47040F2FE7C624500D270BDAC
:1013A000A84214BF4FF080444FF04044002E08BFC5
:1013B0000024BEF1806FA8BFA1F1C041BDE870401C
:1013C00080F282804FF0000001F1C04101F0004145
:1013D00070479EEA0C0F0CEA131518BF95EA0C0F24
:1013E00006D04FF0000081EA030E0EF0004170BD00
:1013F00000F01CF88900013E00F007B800F009B8C1
:101400004FEA430C5FEA5C5C08D081EA030100F01C
:101410005BB84FEA410C5FEA5C5CF6D14FF000002C
:10142000014970470000FF070000F87F0EF1020E2F
:101430002EF0030E5EF8046B364205D4012A43EB0E
:10144000030515F5001F12D8012841EB010C1CF50E
:10145000001F0CD80ED14FEAD17C15F5001F0CEB04
:101460004C0C0CF1020C08BF4CEBD37C04E04FF0A9
:10147000080C01E04FEAD37C0CEB4C0526FA05F68C
:1014800006F00706B6F1040C06D20EEB860CBDE89A
:1014900070404CF0010C6047DFE80CF0090B0202D1
:1014A0004FF000414FF00000A1F5002170BD19463A
:1014B0001046012851EB010418BFD4F5001484BF75
:1014C000002001F0004170BD0808A0F500114FEAAE
:1014D0003101704743004FEAD30C4FEA3C0C4340C4
:1014E0001FBF40070CF1605113F0FE4F70471CF016
:1014F000006F03D100200CF0004170470CF0004356
:1015000043EA507010B540EACC0000F00EF800BF7E
:10151000000000924FEA0001FFF7D6BF4FF00041F4
:101520004FF00000A1F5002170470EF1020E2EF0E1
:10153000030E5EF8044B244204D44FEA4102B2F198
:101540007F4F11D84FEA4003B3F17F4F0CD80ED133
:101550004FEAD07CB2F17F4F0CEB4C0C0CF1020C3B
:1015600008BF4CEBD17C04E04FF0080C01E04FEADF
:10157000D17C0CEB4C0324FA03F404F00704B4F11F
:10158000040C06D20EEB840CBDE810404CF0010CAC
:101590006047DFE80CF0070802024FF00040A0F5BA
:1015A000800010BD0846420018BFD2F1807288BF8B
:1015B00000F0004010BD4FF04070E1EE100A70479F
:1015C00000000000000000000102030406070809F3
:1015D000F01500080000002010000000C401000801
:1015E000001600081000002060060000E00100085E
:1015F0000100000010000000000000000024F400C2
:040000050800018965
:00000001FF
